{
  "contractName": "DonationChain",
  "abi": [
    {
      "inputs": [],
      "stateMutability": "nonpayable",
      "type": "constructor"
    },
    {
      "inputs": [
        {
          "internalType": "address",
          "name": "",
          "type": "address"
        }
      ],
      "name": "charities",
      "outputs": [
        {
          "internalType": "string",
          "name": "name",
          "type": "string"
        },
        {
          "internalType": "string",
          "name": "description",
          "type": "string"
        },
        {
          "internalType": "enum DonationChain.Cause",
          "name": "cause",
          "type": "uint8"
        },
        {
          "internalType": "string",
          "name": "website",
          "type": "string"
        },
        {
          "internalType": "uint256",
          "name": "donationCount",
          "type": "uint256"
        }
      ],
      "stateMutability": "view",
      "type": "function",
      "constant": true
    },
    {
      "inputs": [],
      "name": "owner",
      "outputs": [
        {
          "internalType": "address",
          "name": "",
          "type": "address"
        }
      ],
      "stateMutability": "view",
      "type": "function",
      "constant": true
    },
    {
      "inputs": [
        {
          "internalType": "address",
          "name": "recipient",
          "type": "address"
        },
        {
          "internalType": "string",
          "name": "name",
          "type": "string"
        },
        {
          "internalType": "string",
          "name": "description",
          "type": "string"
        },
        {
          "internalType": "enum DonationChain.Cause",
          "name": "cause",
          "type": "uint8"
        },
        {
          "internalType": "string",
          "name": "website",
          "type": "string"
        },
        {
          "internalType": "address[]",
          "name": "acceptedTokens",
          "type": "address[]"
        }
      ],
      "name": "createCharity",
      "outputs": [],
      "stateMutability": "nonpayable",
      "type": "function"
    },
    {
      "inputs": [
        {
          "internalType": "address",
          "name": "recipient",
          "type": "address"
        },
        {
          "internalType": "string",
          "name": "name",
          "type": "string"
        },
        {
          "internalType": "string",
          "name": "description",
          "type": "string"
        },
        {
          "internalType": "enum DonationChain.Cause",
          "name": "cause",
          "type": "uint8"
        },
        {
          "internalType": "string",
          "name": "website",
          "type": "string"
        },
        {
          "internalType": "address[]",
          "name": "acceptedTokens",
          "type": "address[]"
        }
      ],
      "name": "updateCharity",
      "outputs": [],
      "stateMutability": "nonpayable",
      "type": "function"
    },
    {
      "inputs": [
        {
          "internalType": "address",
          "name": "recipient",
          "type": "address"
        }
      ],
      "name": "deleteCharity",
      "outputs": [],
      "stateMutability": "nonpayable",
      "type": "function"
    },
    {
      "inputs": [],
      "name": "allRecipients",
      "outputs": [
        {
          "internalType": "address[]",
          "name": "",
          "type": "address[]"
        }
      ],
      "stateMutability": "view",
      "type": "function",
      "constant": true
    },
    {
      "inputs": [
        {
          "internalType": "address",
          "name": "addr",
          "type": "address"
        }
      ],
      "name": "addressDonations",
      "outputs": [
        {
          "components": [
            {
              "internalType": "address",
              "name": "from",
              "type": "address"
            },
            {
              "internalType": "address",
              "name": "recipient",
              "type": "address"
            },
            {
              "internalType": "uint256",
              "name": "amount",
              "type": "uint256"
            },
            {
              "internalType": "address",
              "name": "token",
              "type": "address"
            },
            {
              "internalType": "uint256",
              "name": "timestamp",
              "type": "uint256"
            }
          ],
          "internalType": "struct DonationChain.Donation[]",
          "name": "",
          "type": "tuple[]"
        }
      ],
      "stateMutability": "view",
      "type": "function",
      "constant": true
    },
    {
      "inputs": [
        {
          "internalType": "address payable",
          "name": "recipient",
          "type": "address"
        }
      ],
      "name": "donate",
      "outputs": [],
      "stateMutability": "payable",
      "type": "function",
      "payable": true
    },
    {
      "inputs": [
        {
          "internalType": "address",
          "name": "recipient",
          "type": "address"
        },
        {
          "internalType": "address",
          "name": "token",
          "type": "address"
        },
        {
          "internalType": "uint256",
          "name": "amount",
          "type": "uint256"
        }
      ],
      "name": "donateToken",
      "outputs": [],
      "stateMutability": "nonpayable",
      "type": "function"
    }
  ],
  "bytecode": "0x608060405234801561001057600080fd5b50336000806101000a81548173ffffffffffffffffffffffffffffffffffffffff021916908373ffffffffffffffffffffffffffffffffffffffff160217905550613283806100606000396000f3fe6080604052600436106100855760003560e01c806386be0fd91161005957806386be0fd9146101395780638da5cb5b14610164578063b00abc931461018f578063b6a797ce146101b8578063c6df5516146101f557610085565b8062362a951461008a5780630198c8b2146100a65780632478239a146100cf5780637822237314610110575b600080fd5b6100a4600480360381019061009f919061228a565b61021e565b005b3480156100b257600080fd5b506100cd60048036038101906100c89190612528565b6106fd565b005b3480156100db57600080fd5b506100f660048036038101906100f19190612625565b610afb565b60405161010795949392919061276a565b60405180910390f35b34801561011c57600080fd5b50610137600480360381019061013291906127fe565b610cd6565b005b34801561014557600080fd5b5061014e611696565b60405161015b919061290f565b60405180910390f35b34801561017057600080fd5b50610179611724565b6040516101869190612940565b60405180910390f35b34801561019b57600080fd5b506101b660048036038101906101b19190612528565b611748565b005b3480156101c457600080fd5b506101df60048036038101906101da9190612625565b611b79565b6040516101ec9190612a81565b60405180910390f35b34801561020157600080fd5b5061021c60048036038101906102179190612625565b611d2d565b005b806000600260008373ffffffffffffffffffffffffffffffffffffffff1673ffffffffffffffffffffffffffffffffffffffff168152602001908152602001600020600001805461026e90612ad2565b9050116102b0576040517f08c379a00000000000000000000000000000000000000000000000000000000081526004016102a790612b50565b60405180910390fd5b6000600260003373ffffffffffffffffffffffffffffffffffffffff1673ffffffffffffffffffffffffffffffffffffffff16815260200190815260200160002060000180546102ff90612ad2565b905014610341576040517f08c379a000000000000000000000000000000000000000000000000000000000815260040161033890612be2565b60405180910390fd5b8173ffffffffffffffffffffffffffffffffffffffff166108fc349081150290604051600060405180830381858888f19350505050158015610387573d6000803e3d6000fd5b506001600260008473ffffffffffffffffffffffffffffffffffffffff1673ffffffffffffffffffffffffffffffffffffffff16815260200190815260200160002060050160008282546103db9190612c31565b9250508190555060006040518060a001604052803373ffffffffffffffffffffffffffffffffffffffff1681526020018473ffffffffffffffffffffffffffffffffffffffff168152602001348152602001600073ffffffffffffffffffffffffffffffffffffffff168152602001428152509050600360003373ffffffffffffffffffffffffffffffffffffffff1673ffffffffffffffffffffffffffffffffffffffff16815260200190815260200160002081908060018154018082558091505060019003906000526020600020906005020160009091909190915060008201518160000160006101000a81548173ffffffffffffffffffffffffffffffffffffffff021916908373ffffffffffffffffffffffffffffffffffffffff16021790555060208201518160010160006101000a81548173ffffffffffffffffffffffffffffffffffffffff021916908373ffffffffffffffffffffffffffffffffffffffff1602179055506040820151816002015560608201518160030160006101000a81548173ffffffffffffffffffffffffffffffffffffffff021916908373ffffffffffffffffffffffffffffffffffffffff160217905550608082015181600401555050600360008473ffffffffffffffffffffffffffffffffffffffff1673ffffffffffffffffffffffffffffffffffffffff16815260200190815260200160002081908060018154018082558091505060019003906000526020600020906005020160009091909190915060008201518160000160006101000a81548173ffffffffffffffffffffffffffffffffffffffff021916908373ffffffffffffffffffffffffffffffffffffffff16021790555060208201518160010160006101000a81548173ffffffffffffffffffffffffffffffffffffffff021916908373ffffffffffffffffffffffffffffffffffffffff1602179055506040820151816002015560608201518160030160006101000a81548173ffffffffffffffffffffffffffffffffffffffff021916908373ffffffffffffffffffffffffffffffffffffffff160217905550608082015181600401555050505050565b60008054906101000a900473ffffffffffffffffffffffffffffffffffffffff1673ffffffffffffffffffffffffffffffffffffffff163373ffffffffffffffffffffffffffffffffffffffff161461078b576040517f08c379a000000000000000000000000000000000000000000000000000000000815260040161078290612cd3565b60405180910390fd5b856000600260008373ffffffffffffffffffffffffffffffffffffffff1673ffffffffffffffffffffffffffffffffffffffff16815260200190815260200160002060000180546107db90612ad2565b90501461081d576040517f08c379a000000000000000000000000000000000000000000000000000000000815260040161081490612d3f565b60405180910390fd5b868686848373ffffffffffffffffffffffffffffffffffffffff168473ffffffffffffffffffffffffffffffffffffffff161461088f576040517f08c379a000000000000000000000000000000000000000000000000000000000815260040161088690612dab565b60405180910390fd5b60008351116108d3576040517f08c379a00000000000000000000000000000000000000000000000000000000081526004016108ca90612e17565b60405180910390fd5b6000825111610917576040517f08c379a000000000000000000000000000000000000000000000000000000000815260040161090e90612e83565b60405180910390fd5b600081511161095b576040517f08c379a000000000000000000000000000000000000000000000000000000000815260040161095290612f15565b60405180910390fd5b6040518060c001604052808b81526020018a8152602001896007811115610985576109846126da565b5b81526020018881526020018781526020016000815250600260008d73ffffffffffffffffffffffffffffffffffffffff1673ffffffffffffffffffffffffffffffffffffffff16815260200190815260200160002060008201518160000190805190602001906109f692919061208a565b506020820151816001019080519060200190610a1392919061208a565b5060408201518160020160006101000a81548160ff02191690836007811115610a3f57610a3e6126da565b5b02179055506060820151816003019080519060200190610a6092919061208a565b506080820151816004019080519060200190610a7d929190612110565b5060a0820151816005015590505060018b9080600181540180825580915050600190039060005260206000200160009091909190916101000a81548173ffffffffffffffffffffffffffffffffffffffff021916908373ffffffffffffffffffffffffffffffffffffffff1602179055505050505050505050505050565b6002602052806000526040600020600091509050806000018054610b1e90612ad2565b80601f0160208091040260200160405190810160405280929190818152602001828054610b4a90612ad2565b8015610b975780601f10610b6c57610100808354040283529160200191610b97565b820191906000526020600020905b815481529060010190602001808311610b7a57829003601f168201915b505050505090806001018054610bac90612ad2565b80601f0160208091040260200160405190810160405280929190818152602001828054610bd890612ad2565b8015610c255780601f10610bfa57610100808354040283529160200191610c25565b820191906000526020600020905b815481529060010190602001808311610c0857829003601f168201915b5050505050908060020160009054906101000a900460ff1690806003018054610c4d90612ad2565b80601f0160208091040260200160405190810160405280929190818152602001828054610c7990612ad2565b8015610cc65780601f10610c9b57610100808354040283529160200191610cc6565b820191906000526020600020905b815481529060010190602001808311610ca957829003601f168201915b5050505050908060050154905085565b826000600260008373ffffffffffffffffffffffffffffffffffffffff1673ffffffffffffffffffffffffffffffffffffffff1681526020019081526020016000206000018054610d2690612ad2565b905011610d68576040517f08c379a0000000000000000000000000000000000000000000000000000000008152600401610d5f90612b50565b60405180910390fd5b6000600260003373ffffffffffffffffffffffffffffffffffffffff1673ffffffffffffffffffffffffffffffffffffffff1681526020019081526020016000206000018054610db790612ad2565b905014610df9576040517f08c379a0000000000000000000000000000000000000000000000000000000008152600401610df090612be2565b60405180910390fd5b6000600260008673ffffffffffffffffffffffffffffffffffffffff1673ffffffffffffffffffffffffffffffffffffffff1681526020019081526020016000206040518060c0016040529081600082018054610e5590612ad2565b80601f0160208091040260200160405190810160405280929190818152602001828054610e8190612ad2565b8015610ece5780601f10610ea357610100808354040283529160200191610ece565b820191906000526020600020905b815481529060010190602001808311610eb157829003601f168201915b50505050508152602001600182018054610ee790612ad2565b80601f0160208091040260200160405190810160405280929190818152602001828054610f1390612ad2565b8015610f605780601f10610f3557610100808354040283529160200191610f60565b820191906000526020600020905b815481529060010190602001808311610f4357829003601f168201915b505050505081526020016002820160009054906101000a900460ff166007811115610f8e57610f8d6126da565b5b6007811115610fa057610f9f6126da565b5b8152602001600382018054610fb490612ad2565b80601f0160208091040260200160405190810160405280929190818152602001828054610fe090612ad2565b801561102d5780601f106110025761010080835404028352916020019161102d565b820191906000526020600020905b81548152906001019060200180831161101057829003601f168201915b50505050508152602001600482018054806020026020016040519081016040528092919081815260200182805480156110bb57602002820191906000526020600020905b8160009054906101000a900473ffffffffffffffffffffffffffffffffffffffff1673ffffffffffffffffffffffffffffffffffffffff1681526020019060010190808311611071575b50505050508152602001600582015481525050905060008490506000805b836080015151811015611154578673ffffffffffffffffffffffffffffffffffffffff168460800151828151811061111457611113612f35565b5b602002602001015173ffffffffffffffffffffffffffffffffffffffff1614156111415760019150611154565b808061114c90612f64565b9150506110d9565b5080611195576040517f08c379a000000000000000000000000000000000000000000000000000000000815260040161118c90612ff9565b60405180910390fd5b600085116111d8576040517f08c379a00000000000000000000000000000000000000000000000000000000081526004016111cf9061308b565b60405180910390fd5b60008273ffffffffffffffffffffffffffffffffffffffff1663dd62ed3e33306040518363ffffffff1660e01b81526004016112159291906130ab565b602060405180830381865afa158015611232573d6000803e3d6000fd5b505050506040513d601f19601f8201168201806040525081019061125691906130e9565b90508581101561129b576040517f08c379a000000000000000000000000000000000000000000000000000000000815260040161129290613162565b60405180910390fd5b8273ffffffffffffffffffffffffffffffffffffffff166323b872dd338a896040518463ffffffff1660e01b81526004016112d893929190613182565b6020604051808303816000875af11580156112f7573d6000803e3d6000fd5b505050506040513d601f19601f8201168201806040525081019061131b91906131f1565b506001600260008a73ffffffffffffffffffffffffffffffffffffffff1673ffffffffffffffffffffffffffffffffffffffff168152602001908152602001600020600501600082825461136f9190612c31565b9250508190555060006040518060a001604052803373ffffffffffffffffffffffffffffffffffffffff1681526020018a73ffffffffffffffffffffffffffffffffffffffff1681526020018881526020018973ffffffffffffffffffffffffffffffffffffffff168152602001428152509050600360003373ffffffffffffffffffffffffffffffffffffffff1673ffffffffffffffffffffffffffffffffffffffff16815260200190815260200160002081908060018154018082558091505060019003906000526020600020906005020160009091909190915060008201518160000160006101000a81548173ffffffffffffffffffffffffffffffffffffffff021916908373ffffffffffffffffffffffffffffffffffffffff16021790555060208201518160010160006101000a81548173ffffffffffffffffffffffffffffffffffffffff021916908373ffffffffffffffffffffffffffffffffffffffff1602179055506040820151816002015560608201518160030160006101000a81548173ffffffffffffffffffffffffffffffffffffffff021916908373ffffffffffffffffffffffffffffffffffffffff160217905550608082015181600401555050600360008a73ffffffffffffffffffffffffffffffffffffffff1673ffffffffffffffffffffffffffffffffffffffff16815260200190815260200160002081908060018154018082558091505060019003906000526020600020906005020160009091909190915060008201518160000160006101000a81548173ffffffffffffffffffffffffffffffffffffffff021916908373ffffffffffffffffffffffffffffffffffffffff16021790555060208201518160010160006101000a81548173ffffffffffffffffffffffffffffffffffffffff021916908373ffffffffffffffffffffffffffffffffffffffff1602179055506040820151816002015560608201518160030160006101000a81548173ffffffffffffffffffffffffffffffffffffffff021916908373ffffffffffffffffffffffffffffffffffffffff160217905550608082015181600401555050505050505050505050565b6060600180548060200260200160405190810160405280929190818152602001828054801561171a57602002820191906000526020600020905b8160009054906101000a900473ffffffffffffffffffffffffffffffffffffffff1673ffffffffffffffffffffffffffffffffffffffff16815260200190600101908083116116d0575b5050505050905090565b60008054906101000a900473ffffffffffffffffffffffffffffffffffffffff1681565b60008054906101000a900473ffffffffffffffffffffffffffffffffffffffff1673ffffffffffffffffffffffffffffffffffffffff163373ffffffffffffffffffffffffffffffffffffffff16146117d6576040517f08c379a00000000000000000000000000000000000000000000000000000000081526004016117cd90612cd3565b60405180910390fd5b856000600260008373ffffffffffffffffffffffffffffffffffffffff1673ffffffffffffffffffffffffffffffffffffffff168152602001908152602001600020600001805461182690612ad2565b905011611868576040517f08c379a000000000000000000000000000000000000000000000000000000000815260040161185f90612b50565b60405180910390fd5b868686848373ffffffffffffffffffffffffffffffffffffffff168473ffffffffffffffffffffffffffffffffffffffff16146118da576040517f08c379a00000000000000000000000000000000000000000000000000000000081526004016118d190612dab565b60405180910390fd5b600083511161191e576040517f08c379a000000000000000000000000000000000000000000000000000000000815260040161191590612e17565b60405180910390fd5b6000825111611962576040517f08c379a000000000000000000000000000000000000000000000000000000000815260040161195990612e83565b60405180910390fd5b60008151116119a6576040517f08c379a000000000000000000000000000000000000000000000000000000000815260040161199d90612f15565b60405180910390fd5b89600260008d73ffffffffffffffffffffffffffffffffffffffff1673ffffffffffffffffffffffffffffffffffffffff16815260200190815260200160002060000190805190602001906119fc92919061208a565b5088600260008d73ffffffffffffffffffffffffffffffffffffffff1673ffffffffffffffffffffffffffffffffffffffff1681526020019081526020016000206001019080519060200190611a5392919061208a565b5087600260008d73ffffffffffffffffffffffffffffffffffffffff1673ffffffffffffffffffffffffffffffffffffffff16815260200190815260200160002060020160006101000a81548160ff02191690836007811115611ab957611ab86126da565b5b021790555086600260008d73ffffffffffffffffffffffffffffffffffffffff1673ffffffffffffffffffffffffffffffffffffffff1681526020019081526020016000206003019080519060200190611b1492919061208a565b5085600260008d73ffffffffffffffffffffffffffffffffffffffff1673ffffffffffffffffffffffffffffffffffffffff1681526020019081526020016000206004019080519060200190611b6b929190612110565b505050505050505050505050565b6060600360008373ffffffffffffffffffffffffffffffffffffffff1673ffffffffffffffffffffffffffffffffffffffff168152602001908152602001600020805480602002602001604051908101604052809291908181526020016000905b82821015611d2257838290600052602060002090600502016040518060a00160405290816000820160009054906101000a900473ffffffffffffffffffffffffffffffffffffffff1673ffffffffffffffffffffffffffffffffffffffff1673ffffffffffffffffffffffffffffffffffffffff1681526020016001820160009054906101000a900473ffffffffffffffffffffffffffffffffffffffff1673ffffffffffffffffffffffffffffffffffffffff1673ffffffffffffffffffffffffffffffffffffffff168152602001600282015481526020016003820160009054906101000a900473ffffffffffffffffffffffffffffffffffffffff1673ffffffffffffffffffffffffffffffffffffffff1673ffffffffffffffffffffffffffffffffffffffff16815260200160048201548152505081526020019060010190611bda565b505050509050919050565b60008054906101000a900473ffffffffffffffffffffffffffffffffffffffff1673ffffffffffffffffffffffffffffffffffffffff163373ffffffffffffffffffffffffffffffffffffffff1614611dbb576040517f08c379a0000000000000000000000000000000000000000000000000000000008152600401611db290612cd3565b60405180910390fd5b806000600260008373ffffffffffffffffffffffffffffffffffffffff1673ffffffffffffffffffffffffffffffffffffffff1681526020019081526020016000206000018054611e0b90612ad2565b905011611e4d576040517f08c379a0000000000000000000000000000000000000000000000000000000008152600401611e4490612b50565b60405180910390fd5b600260008373ffffffffffffffffffffffffffffffffffffffff1673ffffffffffffffffffffffffffffffffffffffff16815260200190815260200160002060008082016000611e9d919061219a565b600182016000611ead919061219a565b6002820160006101000a81549060ff0219169055600382016000611ed1919061219a565b600482016000611ee191906121da565b600582016000905550506000805b60018054905081101561203d578373ffffffffffffffffffffffffffffffffffffffff1660018281548110611f2757611f26612f35565b5b9060005260206000200160009054906101000a900473ffffffffffffffffffffffffffffffffffffffff1673ffffffffffffffffffffffffffffffffffffffff161415611f7357600191505b600182611f81576000611f84565b60015b60ff1682611f929190612c31565b81548110611fa357611fa2612f35565b5b9060005260206000200160009054906101000a900473ffffffffffffffffffffffffffffffffffffffff1660018281548110611fe257611fe1612f35565b5b9060005260206000200160006101000a81548173ffffffffffffffffffffffffffffffffffffffff021916908373ffffffffffffffffffffffffffffffffffffffff160217905550808061203590612f64565b915050611eef565b5060018054806120505761204f61321e565b5b6001900381819060005260206000200160006101000a81549073ffffffffffffffffffffffffffffffffffffffff02191690559055505050565b82805461209690612ad2565b90600052602060002090601f0160209004810192826120b857600085556120ff565b82601f106120d157805160ff19168380011785556120ff565b828001600101855582156120ff579182015b828111156120fe5782518255916020019190600101906120e3565b5b50905061210c91906121fb565b5090565b828054828255906000526020600020908101928215612189579160200282015b828111156121885782518260006101000a81548173ffffffffffffffffffffffffffffffffffffffff021916908373ffffffffffffffffffffffffffffffffffffffff16021790555091602001919060010190612130565b5b50905061219691906121fb565b5090565b5080546121a690612ad2565b6000825580601f106121b857506121d7565b601f0160209004906000526020600020908101906121d691906121fb565b5b50565b50805460008255906000526020600020908101906121f891906121fb565b50565b5b808211156122145760008160009055506001016121fc565b5090565b6000604051905090565b600080fd5b600080fd5b600073ffffffffffffffffffffffffffffffffffffffff82169050919050565b60006122578261222c565b9050919050565b6122678161224c565b811461227257600080fd5b50565b6000813590506122848161225e565b92915050565b6000602082840312156122a05761229f612222565b5b60006122ae84828501612275565b91505092915050565b60006122c28261222c565b9050919050565b6122d2816122b7565b81146122dd57600080fd5b50565b6000813590506122ef816122c9565b92915050565b600080fd5b600080fd5b6000601f19601f8301169050919050565b7f4e487b7100000000000000000000000000000000000000000000000000000000600052604160045260246000fd5b612348826122ff565b810181811067ffffffffffffffff8211171561236757612366612310565b5b80604052505050565b600061237a612218565b9050612386828261233f565b919050565b600067ffffffffffffffff8211156123a6576123a5612310565b5b6123af826122ff565b9050602081019050919050565b82818337600083830152505050565b60006123de6123d98461238b565b612370565b9050828152602081018484840111156123fa576123f96122fa565b5b6124058482856123bc565b509392505050565b600082601f830112612422576124216122f5565b5b81356124328482602086016123cb565b91505092915050565b6008811061244857600080fd5b50565b60008135905061245a8161243b565b92915050565b600067ffffffffffffffff82111561247b5761247a612310565b5b602082029050602081019050919050565b600080fd5b60006124a461249f84612460565b612370565b905080838252602082019050602084028301858111156124c7576124c661248c565b5b835b818110156124f057806124dc88826122e0565b8452602084019350506020810190506124c9565b5050509392505050565b600082601f83011261250f5761250e6122f5565b5b813561251f848260208601612491565b91505092915050565b60008060008060008060c0878903121561254557612544612222565b5b600061255389828a016122e0565b965050602087013567ffffffffffffffff81111561257457612573612227565b5b61258089828a0161240d565b955050604087013567ffffffffffffffff8111156125a1576125a0612227565b5b6125ad89828a0161240d565b94505060606125be89828a0161244b565b935050608087013567ffffffffffffffff8111156125df576125de612227565b5b6125eb89828a0161240d565b92505060a087013567ffffffffffffffff81111561260c5761260b612227565b5b61261889828a016124fa565b9150509295509295509295565b60006020828403121561263b5761263a612222565b5b6000612649848285016122e0565b91505092915050565b600081519050919050565b600082825260208201905092915050565b60005b8381101561268c578082015181840152602081019050612671565b8381111561269b576000848401525b50505050565b60006126ac82612652565b6126b6818561265d565b93506126c681856020860161266e565b6126cf816122ff565b840191505092915050565b7f4e487b7100000000000000000000000000000000000000000000000000000000600052602160045260246000fd5b6008811061271a576127196126da565b5b50565b600081905061272b82612709565b919050565b600061273b8261271d565b9050919050565b61274b81612730565b82525050565b6000819050919050565b61276481612751565b82525050565b600060a082019050818103600083015261278481886126a1565b9050818103602083015261279881876126a1565b90506127a76040830186612742565b81810360608301526127b981856126a1565b90506127c8608083018461275b565b9695505050505050565b6127db81612751565b81146127e657600080fd5b50565b6000813590506127f8816127d2565b92915050565b60008060006060848603121561281757612816612222565b5b6000612825868287016122e0565b9350506020612836868287016122e0565b9250506040612847868287016127e9565b9150509250925092565b600081519050919050565b600082825260208201905092915050565b6000819050602082019050919050565b612886816122b7565b82525050565b6000612898838361287d565b60208301905092915050565b6000602082019050919050565b60006128bc82612851565b6128c6818561285c565b93506128d18361286d565b8060005b838110156129025781516128e9888261288c565b97506128f4836128a4565b9250506001810190506128d5565b5085935050505092915050565b6000602082019050818103600083015261292981846128b1565b905092915050565b61293a816122b7565b82525050565b60006020820190506129556000830184612931565b92915050565b600081519050919050565b600082825260208201905092915050565b6000819050602082019050919050565b61299081612751565b82525050565b60a0820160008201516129ac600085018261287d565b5060208201516129bf602085018261287d565b5060408201516129d26040850182612987565b5060608201516129e5606085018261287d565b5060808201516129f86080850182612987565b50505050565b6000612a0a8383612996565b60a08301905092915050565b6000602082019050919050565b6000612a2e8261295b565b612a388185612966565b9350612a4383612977565b8060005b83811015612a74578151612a5b88826129fe565b9750612a6683612a16565b925050600181019050612a47565b5085935050505092915050565b60006020820190508181036000830152612a9b8184612a23565b905092915050565b7f4e487b7100000000000000000000000000000000000000000000000000000000600052602260045260246000fd5b60006002820490506001821680612aea57607f821691505b60208210811415612afe57612afd612aa3565b5b50919050565b7f43686172697479206e6f74206578697374730000000000000000000000000000600082015250565b6000612b3a60128361265d565b9150612b4582612b04565b602082019050919050565b60006020820190508181036000830152612b6981612b2d565b9050919050565b7f53656e646572206164647265737320697320612063686172697479207265636960008201527f7069656e74000000000000000000000000000000000000000000000000000000602082015250565b6000612bcc60258361265d565b9150612bd782612b70565b604082019050919050565b60006020820190508181036000830152612bfb81612bbf565b9050919050565b7f4e487b7100000000000000000000000000000000000000000000000000000000600052601160045260246000fd5b6000612c3c82612751565b9150612c4783612751565b9250827fffffffffffffffffffffffffffffffffffffffffffffffffffffffffffffffff03821115612c7c57612c7b612c02565b5b828201905092915050565b7f53656e6465722069736e277420636f6e7472616374206f776e65720000000000600082015250565b6000612cbd601b8361265d565b9150612cc882612c87565b602082019050919050565b60006020820190508181036000830152612cec81612cb0565b9050919050565b7f4368617269747920616c72656164792065786973747300000000000000000000600082015250565b6000612d2960168361265d565b9150612d3482612cf3565b602082019050919050565b60006020820190508181036000830152612d5881612d1c565b9050919050565b7f43686172697479206164647265737320697320696e76616c6964000000000000600082015250565b6000612d95601a8361265d565b9150612da082612d5f565b602082019050919050565b60006020820190508181036000830152612dc481612d88565b9050919050565b7f43686172697479206e616d6520697320626c616e6b0000000000000000000000600082015250565b6000612e0160158361265d565b9150612e0c82612dcb565b602082019050919050565b60006020820190508181036000830152612e3081612df4565b9050919050565b7f43686172697479206465736372697074696f6e20697320626c616e6b00000000600082015250565b6000612e6d601c8361265d565b9150612e7882612e37565b602082019050919050565b60006020820190508181036000830152612e9c81612e60565b9050919050565b7f43686172697479206d75737420616363657074206174206c65617374206f6e6560008201527f20746f6b656e0000000000000000000000000000000000000000000000000000602082015250565b6000612eff60268361265d565b9150612f0a82612ea3565b604082019050919050565b60006020820190508181036000830152612f2e81612ef2565b9050919050565b7f4e487b7100000000000000000000000000000000000000000000000000000000600052603260045260246000fd5b6000612f6f82612751565b91507fffffffffffffffffffffffffffffffffffffffffffffffffffffffffffffffff821415612fa257612fa1612c02565b5b600182019050919050565b7f546f6b656e206e6f742061636365707465642062792063686172697479000000600082015250565b6000612fe3601d8361265d565b9150612fee82612fad565b602082019050919050565b6000602082019050818103600083015261301281612fd6565b9050919050565b7f596f75206e65656420746f20646f6e617465206174206c6561737420736f6d6560008201527f20616d6f756e7400000000000000000000000000000000000000000000000000602082015250565b600061307560278361265d565b915061308082613019565b604082019050919050565b600060208201905081810360008301526130a481613068565b9050919050565b60006040820190506130c06000830185612931565b6130cd6020830184612931565b9392505050565b6000815190506130e3816127d2565b92915050565b6000602082840312156130ff576130fe612222565b5b600061310d848285016130d4565b91505092915050565b7f436865636b2074686520746f6b656e20616c6c6f77616e636500000000000000600082015250565b600061314c60198361265d565b915061315782613116565b602082019050919050565b6000602082019050818103600083015261317b8161313f565b9050919050565b60006060820190506131976000830186612931565b6131a46020830185612931565b6131b1604083018461275b565b949350505050565b60008115159050919050565b6131ce816131b9565b81146131d957600080fd5b50565b6000815190506131eb816131c5565b92915050565b60006020828403121561320757613206612222565b5b6000613215848285016131dc565b91505092915050565b7f4e487b7100000000000000000000000000000000000000000000000000000000600052603160045260246000fdfea2646970667358221220da10d6ec3885334e1bf8fb32170f17a0a1f9204103985fd44edc62303cb448a264736f6c634300080b0033",
  "immutableReferences": {},
  "source": "// SPDX-License-Identifier: MIT\npragma solidity >=0.8.7 <0.9.0;\n\ninterface IBEP20 {\n    function totalSupply() external view returns (uint256);\n    function decimals() external view returns (uint8);\n    function symbol() external view returns (string memory);\n    function name() external view returns (string memory);\n    function getOwner() external view returns (address);\n    function balanceOf(address account) external view returns (uint256);\n    function transfer(address recipient, uint256 amount) external returns (bool);\n    function allowance(address _owner, address spender) external view returns (uint256);\n    function approve(address spender, uint256 amount) external returns (bool);\n    function transferFrom(address sender, address recipient, uint256 amount) external returns (bool);\n\n    event Transfer(address indexed from, address indexed to, uint256 value);\n    event Approval(address indexed owner, address indexed spender, uint256 value);\n}\n\ncontract DonationChain {\n  enum Cause {\n    ANIMALS,\n    CULTURE,\n    EDUCATION,\n    ENVIRONMENT,\n    HEALTHCARE,\n    JUSTICE,\n    RELIGION,\n    RESEARCH\n  }\n\n  struct Charity {\n    string name;\n    string description;\n    Cause cause;\n    string website;\n    address[] acceptedTokens;\n    uint256 donationCount;\n  }\n\n  struct Donation {\n    address from;\n    address recipient;\n    uint256 amount;\n    address token;\n    uint256 timestamp;\n  }\n\n  address public owner;\n\n  address[] private recipients;\n  mapping(address => Charity) public charities;\n  mapping(address => Donation[]) private donations;\n\n  modifier existCharity(address addr) {\n    require(bytes(charities[addr].name).length > 0, \"Charity not exists\");\n    _;\n  }\n\n  modifier notExistCharity(address addr) {\n    require(bytes(charities[addr].name).length == 0, \"Charity already exists\");\n    _;\n  }\n\n  modifier senderNotRecipient() {\n    require(bytes(charities[msg.sender].name).length == 0, \"Sender address is a charity recipient\");\n    _;\n  }\n\n  modifier isCharityValid(address recipient, string memory name, string memory description, address[] memory acceptedTokens) {\n    require(recipient == address(recipient), \"Charity address is invalid\");\n    require(bytes(name).length > 0, \"Charity name is blank\");\n    require(bytes(description).length > 0, \"Charity description is blank\");\n    require(acceptedTokens.length > 0, \"Charity must accept at least one token\");\n    _;\n  }\n\n  modifier isOwner() {\n    require(msg.sender == owner, \"Sender isn't contract owner\");\n    _;\n  }\n\n  constructor() {\n    owner = msg.sender;\n  }\n\n  function createCharity(\n    address recipient,\n    string memory name,\n    string memory description,\n    Cause cause,\n    string memory website,\n    address[] memory acceptedTokens\n  ) public isOwner() notExistCharity(recipient) isCharityValid(recipient, name, description, acceptedTokens) {\n    charities[recipient] = Charity({\n      name: name,\n      description: description,\n      cause: cause,\n      website: website,\n      acceptedTokens: acceptedTokens,\n      donationCount: 0\n    });\n\n    recipients.push(recipient);\n  }\n\n  function updateCharity(\n    address recipient,\n    string memory name,\n    string memory description,\n    Cause cause,\n    string memory website,\n    address[] memory acceptedTokens\n  ) public isOwner() existCharity(recipient) isCharityValid(recipient, name, description, acceptedTokens) {\n    charities[recipient].name = name;\n    charities[recipient].description = description;\n    charities[recipient].cause = cause;\n    charities[recipient].website = website;\n    charities[recipient].acceptedTokens = acceptedTokens;\n  }\n\n  function deleteCharity(address recipient) public isOwner() existCharity(recipient) {\n    delete charities[recipient];\n    bool deleted = false;\n\n    for (uint256 i = 0; i < recipients.length; i++) {\n      if (recipients[i] == recipient) deleted = true;\n      recipients[i] = recipients[i + (deleted ? 1 : 0)];\n    }\n\n    recipients.pop();\n  }\n\n  function allRecipients() public view returns(address[] memory) {\n    return recipients;\n  }\n\n\n  function addressDonations(address addr) public view returns(Donation[] memory) {\n    return donations[addr];\n  }\n\n  function donate(address payable recipient) public payable existCharity(recipient) senderNotRecipient() {\n    recipient.transfer(msg.value);\n    charities[recipient].donationCount += 1;\n\n    Donation memory donation = Donation({\n      from: msg.sender,\n      recipient: recipient,\n      amount: msg.value,\n      token: address(0),\n      timestamp: block.timestamp\n    });\n    donations[msg.sender].push(donation);\n    donations[recipient].push(donation);\n  }\n\n  function donateToken(address recipient, address token, uint256 amount) public existCharity(recipient) senderNotRecipient() {\n    Charity memory charity = charities[recipient];\n    IBEP20 tokenContract = IBEP20(token);\n    bool isTokenAccepted = false;\n\n    for (uint256 i = 0; i < charity.acceptedTokens.length; i++) {\n      if (charity.acceptedTokens[i] == token) {\n        isTokenAccepted = true;\n        break;\n      }\n    }\n\n    require(isTokenAccepted, \"Token not accepted by charity\");\n    require(amount > 0, \"You need to donate at least some amount\");\n    uint256 allowance = tokenContract.allowance(msg.sender, address(this));\n    require(allowance >= amount, \"Check the token allowance\");\n\n    tokenContract.transferFrom(msg.sender, recipient, amount);\n    charities[recipient].donationCount += 1;\n\n    Donation memory donation = Donation({\n      from: msg.sender,\n      recipient: recipient,\n      amount: amount,\n      token: token,\n      timestamp: block.timestamp\n    });\n    donations[msg.sender].push(donation);\n    donations[recipient].push(donation);\n  }\n}\n",
  "sourcePath": "/home/vini23hot/projects/donation-chain/contracts/DonationChain.sol",
  "compiler": {
    "name": "solc",
    "version": "0.8.11+commit.d7f03943.Emscripten.clang"
  },
  "schemaVersion": "3.4.3",
  "updatedAt": "2022-01-09T22:52:42.012Z",
  "networkType": "ethereum",
  "devdoc": {
    "kind": "dev",
    "methods": {},
    "version": 1
  },
  "userdoc": {
    "kind": "user",
    "methods": {},
    "version": 1
  }
}