{
  "contractName": "DonationChain",
  "abi": [
    {
      "inputs": [],
      "stateMutability": "nonpayable",
      "type": "constructor"
    },
    {
      "inputs": [
        {
          "internalType": "address",
          "name": "",
          "type": "address"
        }
      ],
      "name": "charities",
      "outputs": [
        {
          "internalType": "string",
          "name": "name",
          "type": "string"
        },
        {
          "internalType": "string",
          "name": "description",
          "type": "string"
        },
        {
          "internalType": "enum DonationChain.Cause",
          "name": "cause",
          "type": "uint8"
        },
        {
          "internalType": "string",
          "name": "website",
          "type": "string"
        },
        {
          "internalType": "uint256",
          "name": "donationCount",
          "type": "uint256"
        }
      ],
      "stateMutability": "view",
      "type": "function",
      "constant": true
    },
    {
      "inputs": [],
      "name": "owner",
      "outputs": [
        {
          "internalType": "address",
          "name": "",
          "type": "address"
        }
      ],
      "stateMutability": "view",
      "type": "function",
      "constant": true
    },
    {
      "inputs": [
        {
          "internalType": "uint256",
          "name": "",
          "type": "uint256"
        }
      ],
      "name": "recipients",
      "outputs": [
        {
          "internalType": "address",
          "name": "",
          "type": "address"
        }
      ],
      "stateMutability": "view",
      "type": "function",
      "constant": true
    },
    {
      "inputs": [
        {
          "internalType": "address",
          "name": "recipient",
          "type": "address"
        },
        {
          "internalType": "string",
          "name": "name",
          "type": "string"
        },
        {
          "internalType": "string",
          "name": "description",
          "type": "string"
        },
        {
          "internalType": "enum DonationChain.Cause",
          "name": "cause",
          "type": "uint8"
        },
        {
          "internalType": "string",
          "name": "website",
          "type": "string"
        },
        {
          "internalType": "address[]",
          "name": "acceptedTokens",
          "type": "address[]"
        }
      ],
      "name": "createCharity",
      "outputs": [],
      "stateMutability": "nonpayable",
      "type": "function"
    },
    {
      "inputs": [
        {
          "internalType": "address",
          "name": "recipient",
          "type": "address"
        },
        {
          "internalType": "string",
          "name": "name",
          "type": "string"
        },
        {
          "internalType": "string",
          "name": "description",
          "type": "string"
        },
        {
          "internalType": "enum DonationChain.Cause",
          "name": "cause",
          "type": "uint8"
        },
        {
          "internalType": "string",
          "name": "website",
          "type": "string"
        },
        {
          "internalType": "address[]",
          "name": "acceptedTokens",
          "type": "address[]"
        }
      ],
      "name": "updateCharity",
      "outputs": [],
      "stateMutability": "nonpayable",
      "type": "function"
    },
    {
      "inputs": [
        {
          "internalType": "address",
          "name": "recipient",
          "type": "address"
        }
      ],
      "name": "deleteCharity",
      "outputs": [],
      "stateMutability": "nonpayable",
      "type": "function"
    },
    {
      "inputs": [],
      "name": "getRecipients",
      "outputs": [
        {
          "internalType": "address[]",
          "name": "",
          "type": "address[]"
        }
      ],
      "stateMutability": "view",
      "type": "function",
      "constant": true
    },
    {
      "inputs": [
        {
          "internalType": "address",
          "name": "addr",
          "type": "address"
        }
      ],
      "name": "addressDonations",
      "outputs": [
        {
          "components": [
            {
              "internalType": "address",
              "name": "from",
              "type": "address"
            },
            {
              "internalType": "address",
              "name": "recipient",
              "type": "address"
            },
            {
              "internalType": "uint256",
              "name": "amount",
              "type": "uint256"
            },
            {
              "internalType": "address",
              "name": "token",
              "type": "address"
            },
            {
              "internalType": "uint256",
              "name": "timestamp",
              "type": "uint256"
            }
          ],
          "internalType": "struct DonationChain.Donation[]",
          "name": "",
          "type": "tuple[]"
        }
      ],
      "stateMutability": "view",
      "type": "function",
      "constant": true
    },
    {
      "inputs": [
        {
          "internalType": "address payable",
          "name": "recipient",
          "type": "address"
        }
      ],
      "name": "donate",
      "outputs": [],
      "stateMutability": "payable",
      "type": "function",
      "payable": true
    },
    {
      "inputs": [
        {
          "internalType": "address",
          "name": "recipient",
          "type": "address"
        },
        {
          "internalType": "address",
          "name": "token",
          "type": "address"
        },
        {
          "internalType": "uint256",
          "name": "amount",
          "type": "uint256"
        }
      ],
      "name": "donateToken",
      "outputs": [],
      "stateMutability": "nonpayable",
      "type": "function"
    }
  ],
  "bytecode": "0x608060405234801561001057600080fd5b50336000806101000a81548173ffffffffffffffffffffffffffffffffffffffff021916908373ffffffffffffffffffffffffffffffffffffffff160217905550613337806100606000396000f3fe6080604052600436106100905760003560e01c8063b00abc9311610059578063b00abc931461016f578063b6a797ce14610198578063c6df5516146101d5578063d1bc76a1146101fe578063d78d610b1461023b57610090565b8062362a95146100955780630198c8b2146100b15780632478239a146100da578063782223731461011b5780638da5cb5b14610144575b600080fd5b6100af60048036038101906100aa9190612311565b610266565b005b3480156100bd57600080fd5b506100d860048036038101906100d391906125af565b610745565b005b3480156100e657600080fd5b5061010160048036038101906100fc91906126ac565b610b43565b6040516101129594939291906127f1565b60405180910390f35b34801561012757600080fd5b50610142600480360381019061013d9190612885565b610d1e565b005b34801561015057600080fd5b506101596116de565b60405161016691906128e7565b60405180910390f35b34801561017b57600080fd5b50610196600480360381019061019191906125af565b611702565b005b3480156101a457600080fd5b506101bf60048036038101906101ba91906126ac565b611b33565b6040516101cc9190612a37565b60405180910390f35b3480156101e157600080fd5b506101fc60048036038101906101f791906126ac565b611ce7565b005b34801561020a57600080fd5b5061022560048036038101906102209190612a59565b612044565b60405161023291906128e7565b60405180910390f35b34801561024757600080fd5b50610250612083565b60405161025d9190612b35565b60405180910390f35b806000600260008373ffffffffffffffffffffffffffffffffffffffff1673ffffffffffffffffffffffffffffffffffffffff16815260200190815260200160002060000180546102b690612b86565b9050116102f8576040517f08c379a00000000000000000000000000000000000000000000000000000000081526004016102ef90612c04565b60405180910390fd5b6000600260003373ffffffffffffffffffffffffffffffffffffffff1673ffffffffffffffffffffffffffffffffffffffff168152602001908152602001600020600001805461034790612b86565b905014610389576040517f08c379a000000000000000000000000000000000000000000000000000000000815260040161038090612c96565b60405180910390fd5b8173ffffffffffffffffffffffffffffffffffffffff166108fc349081150290604051600060405180830381858888f193505050501580156103cf573d6000803e3d6000fd5b506001600260008473ffffffffffffffffffffffffffffffffffffffff1673ffffffffffffffffffffffffffffffffffffffff16815260200190815260200160002060050160008282546104239190612ce5565b9250508190555060006040518060a001604052803373ffffffffffffffffffffffffffffffffffffffff1681526020018473ffffffffffffffffffffffffffffffffffffffff168152602001348152602001600073ffffffffffffffffffffffffffffffffffffffff168152602001428152509050600360003373ffffffffffffffffffffffffffffffffffffffff1673ffffffffffffffffffffffffffffffffffffffff16815260200190815260200160002081908060018154018082558091505060019003906000526020600020906005020160009091909190915060008201518160000160006101000a81548173ffffffffffffffffffffffffffffffffffffffff021916908373ffffffffffffffffffffffffffffffffffffffff16021790555060208201518160010160006101000a81548173ffffffffffffffffffffffffffffffffffffffff021916908373ffffffffffffffffffffffffffffffffffffffff1602179055506040820151816002015560608201518160030160006101000a81548173ffffffffffffffffffffffffffffffffffffffff021916908373ffffffffffffffffffffffffffffffffffffffff160217905550608082015181600401555050600360008473ffffffffffffffffffffffffffffffffffffffff1673ffffffffffffffffffffffffffffffffffffffff16815260200190815260200160002081908060018154018082558091505060019003906000526020600020906005020160009091909190915060008201518160000160006101000a81548173ffffffffffffffffffffffffffffffffffffffff021916908373ffffffffffffffffffffffffffffffffffffffff16021790555060208201518160010160006101000a81548173ffffffffffffffffffffffffffffffffffffffff021916908373ffffffffffffffffffffffffffffffffffffffff1602179055506040820151816002015560608201518160030160006101000a81548173ffffffffffffffffffffffffffffffffffffffff021916908373ffffffffffffffffffffffffffffffffffffffff160217905550608082015181600401555050505050565b60008054906101000a900473ffffffffffffffffffffffffffffffffffffffff1673ffffffffffffffffffffffffffffffffffffffff163373ffffffffffffffffffffffffffffffffffffffff16146107d3576040517f08c379a00000000000000000000000000000000000000000000000000000000081526004016107ca90612d87565b60405180910390fd5b856000600260008373ffffffffffffffffffffffffffffffffffffffff1673ffffffffffffffffffffffffffffffffffffffff168152602001908152602001600020600001805461082390612b86565b905014610865576040517f08c379a000000000000000000000000000000000000000000000000000000000815260040161085c90612df3565b60405180910390fd5b868686848373ffffffffffffffffffffffffffffffffffffffff168473ffffffffffffffffffffffffffffffffffffffff16146108d7576040517f08c379a00000000000000000000000000000000000000000000000000000000081526004016108ce90612e5f565b60405180910390fd5b600083511161091b576040517f08c379a000000000000000000000000000000000000000000000000000000000815260040161091290612ecb565b60405180910390fd5b600082511161095f576040517f08c379a000000000000000000000000000000000000000000000000000000000815260040161095690612f37565b60405180910390fd5b60008151116109a3576040517f08c379a000000000000000000000000000000000000000000000000000000000815260040161099a90612fc9565b60405180910390fd5b6040518060c001604052808b81526020018a81526020018960078111156109cd576109cc612761565b5b81526020018881526020018781526020016000815250600260008d73ffffffffffffffffffffffffffffffffffffffff1673ffffffffffffffffffffffffffffffffffffffff1681526020019081526020016000206000820151816000019080519060200190610a3e929190612111565b506020820151816001019080519060200190610a5b929190612111565b5060408201518160020160006101000a81548160ff02191690836007811115610a8757610a86612761565b5b02179055506060820151816003019080519060200190610aa8929190612111565b506080820151816004019080519060200190610ac5929190612197565b5060a0820151816005015590505060018b9080600181540180825580915050600190039060005260206000200160009091909190916101000a81548173ffffffffffffffffffffffffffffffffffffffff021916908373ffffffffffffffffffffffffffffffffffffffff1602179055505050505050505050505050565b6002602052806000526040600020600091509050806000018054610b6690612b86565b80601f0160208091040260200160405190810160405280929190818152602001828054610b9290612b86565b8015610bdf5780601f10610bb457610100808354040283529160200191610bdf565b820191906000526020600020905b815481529060010190602001808311610bc257829003601f168201915b505050505090806001018054610bf490612b86565b80601f0160208091040260200160405190810160405280929190818152602001828054610c2090612b86565b8015610c6d5780601f10610c4257610100808354040283529160200191610c6d565b820191906000526020600020905b815481529060010190602001808311610c5057829003601f168201915b5050505050908060020160009054906101000a900460ff1690806003018054610c9590612b86565b80601f0160208091040260200160405190810160405280929190818152602001828054610cc190612b86565b8015610d0e5780601f10610ce357610100808354040283529160200191610d0e565b820191906000526020600020905b815481529060010190602001808311610cf157829003601f168201915b5050505050908060050154905085565b826000600260008373ffffffffffffffffffffffffffffffffffffffff1673ffffffffffffffffffffffffffffffffffffffff1681526020019081526020016000206000018054610d6e90612b86565b905011610db0576040517f08c379a0000000000000000000000000000000000000000000000000000000008152600401610da790612c04565b60405180910390fd5b6000600260003373ffffffffffffffffffffffffffffffffffffffff1673ffffffffffffffffffffffffffffffffffffffff1681526020019081526020016000206000018054610dff90612b86565b905014610e41576040517f08c379a0000000000000000000000000000000000000000000000000000000008152600401610e3890612c96565b60405180910390fd5b6000600260008673ffffffffffffffffffffffffffffffffffffffff1673ffffffffffffffffffffffffffffffffffffffff1681526020019081526020016000206040518060c0016040529081600082018054610e9d90612b86565b80601f0160208091040260200160405190810160405280929190818152602001828054610ec990612b86565b8015610f165780601f10610eeb57610100808354040283529160200191610f16565b820191906000526020600020905b815481529060010190602001808311610ef957829003601f168201915b50505050508152602001600182018054610f2f90612b86565b80601f0160208091040260200160405190810160405280929190818152602001828054610f5b90612b86565b8015610fa85780601f10610f7d57610100808354040283529160200191610fa8565b820191906000526020600020905b815481529060010190602001808311610f8b57829003601f168201915b505050505081526020016002820160009054906101000a900460ff166007811115610fd657610fd5612761565b5b6007811115610fe857610fe7612761565b5b8152602001600382018054610ffc90612b86565b80601f016020809104026020016040519081016040528092919081815260200182805461102890612b86565b80156110755780601f1061104a57610100808354040283529160200191611075565b820191906000526020600020905b81548152906001019060200180831161105857829003601f168201915b505050505081526020016004820180548060200260200160405190810160405280929190818152602001828054801561110357602002820191906000526020600020905b8160009054906101000a900473ffffffffffffffffffffffffffffffffffffffff1673ffffffffffffffffffffffffffffffffffffffff16815260200190600101908083116110b9575b50505050508152602001600582015481525050905060008490506000805b83608001515181101561119c578673ffffffffffffffffffffffffffffffffffffffff168460800151828151811061115c5761115b612fe9565b5b602002602001015173ffffffffffffffffffffffffffffffffffffffff161415611189576001915061119c565b808061119490613018565b915050611121565b50806111dd576040517f08c379a00000000000000000000000000000000000000000000000000000000081526004016111d4906130ad565b60405180910390fd5b60008511611220576040517f08c379a00000000000000000000000000000000000000000000000000000000081526004016112179061313f565b60405180910390fd5b60008273ffffffffffffffffffffffffffffffffffffffff1663dd62ed3e33306040518363ffffffff1660e01b815260040161125d92919061315f565b602060405180830381865afa15801561127a573d6000803e3d6000fd5b505050506040513d601f19601f8201168201806040525081019061129e919061319d565b9050858110156112e3576040517f08c379a00000000000000000000000000000000000000000000000000000000081526004016112da90613216565b60405180910390fd5b8273ffffffffffffffffffffffffffffffffffffffff166323b872dd338a896040518463ffffffff1660e01b815260040161132093929190613236565b6020604051808303816000875af115801561133f573d6000803e3d6000fd5b505050506040513d601f19601f8201168201806040525081019061136391906132a5565b506001600260008a73ffffffffffffffffffffffffffffffffffffffff1673ffffffffffffffffffffffffffffffffffffffff16815260200190815260200160002060050160008282546113b79190612ce5565b9250508190555060006040518060a001604052803373ffffffffffffffffffffffffffffffffffffffff1681526020018a73ffffffffffffffffffffffffffffffffffffffff1681526020018881526020018973ffffffffffffffffffffffffffffffffffffffff168152602001428152509050600360003373ffffffffffffffffffffffffffffffffffffffff1673ffffffffffffffffffffffffffffffffffffffff16815260200190815260200160002081908060018154018082558091505060019003906000526020600020906005020160009091909190915060008201518160000160006101000a81548173ffffffffffffffffffffffffffffffffffffffff021916908373ffffffffffffffffffffffffffffffffffffffff16021790555060208201518160010160006101000a81548173ffffffffffffffffffffffffffffffffffffffff021916908373ffffffffffffffffffffffffffffffffffffffff1602179055506040820151816002015560608201518160030160006101000a81548173ffffffffffffffffffffffffffffffffffffffff021916908373ffffffffffffffffffffffffffffffffffffffff160217905550608082015181600401555050600360008a73ffffffffffffffffffffffffffffffffffffffff1673ffffffffffffffffffffffffffffffffffffffff16815260200190815260200160002081908060018154018082558091505060019003906000526020600020906005020160009091909190915060008201518160000160006101000a81548173ffffffffffffffffffffffffffffffffffffffff021916908373ffffffffffffffffffffffffffffffffffffffff16021790555060208201518160010160006101000a81548173ffffffffffffffffffffffffffffffffffffffff021916908373ffffffffffffffffffffffffffffffffffffffff1602179055506040820151816002015560608201518160030160006101000a81548173ffffffffffffffffffffffffffffffffffffffff021916908373ffffffffffffffffffffffffffffffffffffffff160217905550608082015181600401555050505050505050505050565b60008054906101000a900473ffffffffffffffffffffffffffffffffffffffff1681565b60008054906101000a900473ffffffffffffffffffffffffffffffffffffffff1673ffffffffffffffffffffffffffffffffffffffff163373ffffffffffffffffffffffffffffffffffffffff1614611790576040517f08c379a000000000000000000000000000000000000000000000000000000000815260040161178790612d87565b60405180910390fd5b856000600260008373ffffffffffffffffffffffffffffffffffffffff1673ffffffffffffffffffffffffffffffffffffffff16815260200190815260200160002060000180546117e090612b86565b905011611822576040517f08c379a000000000000000000000000000000000000000000000000000000000815260040161181990612c04565b60405180910390fd5b868686848373ffffffffffffffffffffffffffffffffffffffff168473ffffffffffffffffffffffffffffffffffffffff1614611894576040517f08c379a000000000000000000000000000000000000000000000000000000000815260040161188b90612e5f565b60405180910390fd5b60008351116118d8576040517f08c379a00000000000000000000000000000000000000000000000000000000081526004016118cf90612ecb565b60405180910390fd5b600082511161191c576040517f08c379a000000000000000000000000000000000000000000000000000000000815260040161191390612f37565b60405180910390fd5b6000815111611960576040517f08c379a000000000000000000000000000000000000000000000000000000000815260040161195790612fc9565b60405180910390fd5b89600260008d73ffffffffffffffffffffffffffffffffffffffff1673ffffffffffffffffffffffffffffffffffffffff16815260200190815260200160002060000190805190602001906119b6929190612111565b5088600260008d73ffffffffffffffffffffffffffffffffffffffff1673ffffffffffffffffffffffffffffffffffffffff1681526020019081526020016000206001019080519060200190611a0d929190612111565b5087600260008d73ffffffffffffffffffffffffffffffffffffffff1673ffffffffffffffffffffffffffffffffffffffff16815260200190815260200160002060020160006101000a81548160ff02191690836007811115611a7357611a72612761565b5b021790555086600260008d73ffffffffffffffffffffffffffffffffffffffff1673ffffffffffffffffffffffffffffffffffffffff1681526020019081526020016000206003019080519060200190611ace929190612111565b5085600260008d73ffffffffffffffffffffffffffffffffffffffff1673ffffffffffffffffffffffffffffffffffffffff1681526020019081526020016000206004019080519060200190611b25929190612197565b505050505050505050505050565b6060600360008373ffffffffffffffffffffffffffffffffffffffff1673ffffffffffffffffffffffffffffffffffffffff168152602001908152602001600020805480602002602001604051908101604052809291908181526020016000905b82821015611cdc57838290600052602060002090600502016040518060a00160405290816000820160009054906101000a900473ffffffffffffffffffffffffffffffffffffffff1673ffffffffffffffffffffffffffffffffffffffff1673ffffffffffffffffffffffffffffffffffffffff1681526020016001820160009054906101000a900473ffffffffffffffffffffffffffffffffffffffff1673ffffffffffffffffffffffffffffffffffffffff1673ffffffffffffffffffffffffffffffffffffffff168152602001600282015481526020016003820160009054906101000a900473ffffffffffffffffffffffffffffffffffffffff1673ffffffffffffffffffffffffffffffffffffffff1673ffffffffffffffffffffffffffffffffffffffff16815260200160048201548152505081526020019060010190611b94565b505050509050919050565b60008054906101000a900473ffffffffffffffffffffffffffffffffffffffff1673ffffffffffffffffffffffffffffffffffffffff163373ffffffffffffffffffffffffffffffffffffffff1614611d75576040517f08c379a0000000000000000000000000000000000000000000000000000000008152600401611d6c90612d87565b60405180910390fd5b806000600260008373ffffffffffffffffffffffffffffffffffffffff1673ffffffffffffffffffffffffffffffffffffffff1681526020019081526020016000206000018054611dc590612b86565b905011611e07576040517f08c379a0000000000000000000000000000000000000000000000000000000008152600401611dfe90612c04565b60405180910390fd5b600260008373ffffffffffffffffffffffffffffffffffffffff1673ffffffffffffffffffffffffffffffffffffffff16815260200190815260200160002060008082016000611e579190612221565b600182016000611e679190612221565b6002820160006101000a81549060ff0219169055600382016000611e8b9190612221565b600482016000611e9b9190612261565b600582016000905550506000805b600180549050811015611ff7578373ffffffffffffffffffffffffffffffffffffffff1660018281548110611ee157611ee0612fe9565b5b9060005260206000200160009054906101000a900473ffffffffffffffffffffffffffffffffffffffff1673ffffffffffffffffffffffffffffffffffffffff161415611f2d57600191505b600182611f3b576000611f3e565b60015b60ff1682611f4c9190612ce5565b81548110611f5d57611f5c612fe9565b5b9060005260206000200160009054906101000a900473ffffffffffffffffffffffffffffffffffffffff1660018281548110611f9c57611f9b612fe9565b5b9060005260206000200160006101000a81548173ffffffffffffffffffffffffffffffffffffffff021916908373ffffffffffffffffffffffffffffffffffffffff1602179055508080611fef90613018565b915050611ea9565b50600180548061200a576120096132d2565b5b6001900381819060005260206000200160006101000a81549073ffffffffffffffffffffffffffffffffffffffff02191690559055505050565b6001818154811061205457600080fd5b906000526020600020016000915054906101000a900473ffffffffffffffffffffffffffffffffffffffff1681565b6060600180548060200260200160405190810160405280929190818152602001828054801561210757602002820191906000526020600020905b8160009054906101000a900473ffffffffffffffffffffffffffffffffffffffff1673ffffffffffffffffffffffffffffffffffffffff16815260200190600101908083116120bd575b5050505050905090565b82805461211d90612b86565b90600052602060002090601f01602090048101928261213f5760008555612186565b82601f1061215857805160ff1916838001178555612186565b82800160010185558215612186579182015b8281111561218557825182559160200191906001019061216a565b5b5090506121939190612282565b5090565b828054828255906000526020600020908101928215612210579160200282015b8281111561220f5782518260006101000a81548173ffffffffffffffffffffffffffffffffffffffff021916908373ffffffffffffffffffffffffffffffffffffffff160217905550916020019190600101906121b7565b5b50905061221d9190612282565b5090565b50805461222d90612b86565b6000825580601f1061223f575061225e565b601f01602090049060005260206000209081019061225d9190612282565b5b50565b508054600082559060005260206000209081019061227f9190612282565b50565b5b8082111561229b576000816000905550600101612283565b5090565b6000604051905090565b600080fd5b600080fd5b600073ffffffffffffffffffffffffffffffffffffffff82169050919050565b60006122de826122b3565b9050919050565b6122ee816122d3565b81146122f957600080fd5b50565b60008135905061230b816122e5565b92915050565b600060208284031215612327576123266122a9565b5b6000612335848285016122fc565b91505092915050565b6000612349826122b3565b9050919050565b6123598161233e565b811461236457600080fd5b50565b60008135905061237681612350565b92915050565b600080fd5b600080fd5b6000601f19601f8301169050919050565b7f4e487b7100000000000000000000000000000000000000000000000000000000600052604160045260246000fd5b6123cf82612386565b810181811067ffffffffffffffff821117156123ee576123ed612397565b5b80604052505050565b600061240161229f565b905061240d82826123c6565b919050565b600067ffffffffffffffff82111561242d5761242c612397565b5b61243682612386565b9050602081019050919050565b82818337600083830152505050565b600061246561246084612412565b6123f7565b90508281526020810184848401111561248157612480612381565b5b61248c848285612443565b509392505050565b600082601f8301126124a9576124a861237c565b5b81356124b9848260208601612452565b91505092915050565b600881106124cf57600080fd5b50565b6000813590506124e1816124c2565b92915050565b600067ffffffffffffffff82111561250257612501612397565b5b602082029050602081019050919050565b600080fd5b600061252b612526846124e7565b6123f7565b9050808382526020820190506020840283018581111561254e5761254d612513565b5b835b8181101561257757806125638882612367565b845260208401935050602081019050612550565b5050509392505050565b600082601f8301126125965761259561237c565b5b81356125a6848260208601612518565b91505092915050565b60008060008060008060c087890312156125cc576125cb6122a9565b5b60006125da89828a01612367565b965050602087013567ffffffffffffffff8111156125fb576125fa6122ae565b5b61260789828a01612494565b955050604087013567ffffffffffffffff811115612628576126276122ae565b5b61263489828a01612494565b945050606061264589828a016124d2565b935050608087013567ffffffffffffffff811115612666576126656122ae565b5b61267289828a01612494565b92505060a087013567ffffffffffffffff811115612693576126926122ae565b5b61269f89828a01612581565b9150509295509295509295565b6000602082840312156126c2576126c16122a9565b5b60006126d084828501612367565b91505092915050565b600081519050919050565b600082825260208201905092915050565b60005b838110156127135780820151818401526020810190506126f8565b83811115612722576000848401525b50505050565b6000612733826126d9565b61273d81856126e4565b935061274d8185602086016126f5565b61275681612386565b840191505092915050565b7f4e487b7100000000000000000000000000000000000000000000000000000000600052602160045260246000fd5b600881106127a1576127a0612761565b5b50565b60008190506127b282612790565b919050565b60006127c2826127a4565b9050919050565b6127d2816127b7565b82525050565b6000819050919050565b6127eb816127d8565b82525050565b600060a082019050818103600083015261280b8188612728565b9050818103602083015261281f8187612728565b905061282e60408301866127c9565b81810360608301526128408185612728565b905061284f60808301846127e2565b9695505050505050565b612862816127d8565b811461286d57600080fd5b50565b60008135905061287f81612859565b92915050565b60008060006060848603121561289e5761289d6122a9565b5b60006128ac86828701612367565b93505060206128bd86828701612367565b92505060406128ce86828701612870565b9150509250925092565b6128e18161233e565b82525050565b60006020820190506128fc60008301846128d8565b92915050565b600081519050919050565b600082825260208201905092915050565b6000819050602082019050919050565b6129378161233e565b82525050565b612946816127d8565b82525050565b60a082016000820151612962600085018261292e565b506020820151612975602085018261292e565b506040820151612988604085018261293d565b50606082015161299b606085018261292e565b5060808201516129ae608085018261293d565b50505050565b60006129c0838361294c565b60a08301905092915050565b6000602082019050919050565b60006129e482612902565b6129ee818561290d565b93506129f98361291e565b8060005b83811015612a2a578151612a1188826129b4565b9750612a1c836129cc565b9250506001810190506129fd565b5085935050505092915050565b60006020820190508181036000830152612a5181846129d9565b905092915050565b600060208284031215612a6f57612a6e6122a9565b5b6000612a7d84828501612870565b91505092915050565b600081519050919050565b600082825260208201905092915050565b6000819050602082019050919050565b6000612abe838361292e565b60208301905092915050565b6000602082019050919050565b6000612ae282612a86565b612aec8185612a91565b9350612af783612aa2565b8060005b83811015612b28578151612b0f8882612ab2565b9750612b1a83612aca565b925050600181019050612afb565b5085935050505092915050565b60006020820190508181036000830152612b4f8184612ad7565b905092915050565b7f4e487b7100000000000000000000000000000000000000000000000000000000600052602260045260246000fd5b60006002820490506001821680612b9e57607f821691505b60208210811415612bb257612bb1612b57565b5b50919050565b7f43686172697479206e6f74206578697374730000000000000000000000000000600082015250565b6000612bee6012836126e4565b9150612bf982612bb8565b602082019050919050565b60006020820190508181036000830152612c1d81612be1565b9050919050565b7f53656e646572206164647265737320697320612063686172697479207265636960008201527f7069656e74000000000000000000000000000000000000000000000000000000602082015250565b6000612c806025836126e4565b9150612c8b82612c24565b604082019050919050565b60006020820190508181036000830152612caf81612c73565b9050919050565b7f4e487b7100000000000000000000000000000000000000000000000000000000600052601160045260246000fd5b6000612cf0826127d8565b9150612cfb836127d8565b9250827fffffffffffffffffffffffffffffffffffffffffffffffffffffffffffffffff03821115612d3057612d2f612cb6565b5b828201905092915050565b7f53656e6465722069736e277420636f6e7472616374206f776e65720000000000600082015250565b6000612d71601b836126e4565b9150612d7c82612d3b565b602082019050919050565b60006020820190508181036000830152612da081612d64565b9050919050565b7f4368617269747920616c72656164792065786973747300000000000000000000600082015250565b6000612ddd6016836126e4565b9150612de882612da7565b602082019050919050565b60006020820190508181036000830152612e0c81612dd0565b9050919050565b7f43686172697479206164647265737320697320696e76616c6964000000000000600082015250565b6000612e49601a836126e4565b9150612e5482612e13565b602082019050919050565b60006020820190508181036000830152612e7881612e3c565b9050919050565b7f43686172697479206e616d6520697320626c616e6b0000000000000000000000600082015250565b6000612eb56015836126e4565b9150612ec082612e7f565b602082019050919050565b60006020820190508181036000830152612ee481612ea8565b9050919050565b7f43686172697479206465736372697074696f6e20697320626c616e6b00000000600082015250565b6000612f21601c836126e4565b9150612f2c82612eeb565b602082019050919050565b60006020820190508181036000830152612f5081612f14565b9050919050565b7f43686172697479206d75737420616363657074206174206c65617374206f6e6560008201527f20746f6b656e0000000000000000000000000000000000000000000000000000602082015250565b6000612fb36026836126e4565b9150612fbe82612f57565b604082019050919050565b60006020820190508181036000830152612fe281612fa6565b9050919050565b7f4e487b7100000000000000000000000000000000000000000000000000000000600052603260045260246000fd5b6000613023826127d8565b91507fffffffffffffffffffffffffffffffffffffffffffffffffffffffffffffffff82141561305657613055612cb6565b5b600182019050919050565b7f546f6b656e206e6f742061636365707465642062792063686172697479000000600082015250565b6000613097601d836126e4565b91506130a282613061565b602082019050919050565b600060208201905081810360008301526130c68161308a565b9050919050565b7f596f75206e65656420746f20646f6e617465206174206c6561737420736f6d6560008201527f20616d6f756e7400000000000000000000000000000000000000000000000000602082015250565b60006131296027836126e4565b9150613134826130cd565b604082019050919050565b600060208201905081810360008301526131588161311c565b9050919050565b600060408201905061317460008301856128d8565b61318160208301846128d8565b9392505050565b60008151905061319781612859565b92915050565b6000602082840312156131b3576131b26122a9565b5b60006131c184828501613188565b91505092915050565b7f436865636b2074686520746f6b656e20616c6c6f77616e636500000000000000600082015250565b60006132006019836126e4565b915061320b826131ca565b602082019050919050565b6000602082019050818103600083015261322f816131f3565b9050919050565b600060608201905061324b60008301866128d8565b61325860208301856128d8565b61326560408301846127e2565b949350505050565b60008115159050919050565b6132828161326d565b811461328d57600080fd5b50565b60008151905061329f81613279565b92915050565b6000602082840312156132bb576132ba6122a9565b5b60006132c984828501613290565b91505092915050565b7f4e487b7100000000000000000000000000000000000000000000000000000000600052603160045260246000fdfea26469706673582212200da87f15c34a3703abf4d78b09f4675ad931f11c237172c72b5ae36511fce78864736f6c634300080b0033",
  "immutableReferences": {},
  "source": "// SPDX-License-Identifier: MIT\npragma solidity >=0.8.7 <0.9.0;\n\ninterface IBEP20 {\n    function totalSupply() external view returns (uint256);\n    function decimals() external view returns (uint8);\n    function symbol() external view returns (string memory);\n    function name() external view returns (string memory);\n    function getOwner() external view returns (address);\n    function balanceOf(address account) external view returns (uint256);\n    function transfer(address recipient, uint256 amount) external returns (bool);\n    function allowance(address _owner, address spender) external view returns (uint256);\n    function approve(address spender, uint256 amount) external returns (bool);\n    function transferFrom(address sender, address recipient, uint256 amount) external returns (bool);\n\n    event Transfer(address indexed from, address indexed to, uint256 value);\n    event Approval(address indexed owner, address indexed spender, uint256 value);\n}\n\ncontract DonationChain {\n  enum Cause {\n    ANIMALS,\n    CULTURE,\n    EDUCATION,\n    ENVIRONMENT,\n    HEALTHCARE,\n    JUSTICE,\n    RELIGION,\n    RESEARCH\n  }\n\n  struct Charity {\n    string name;\n    string description;\n    Cause cause;\n    string website;\n    address[] acceptedTokens;\n    uint256 donationCount;\n  }\n\n  struct Donation {\n    address from;\n    address recipient;\n    uint256 amount;\n    address token;\n    uint256 timestamp;\n  }\n\n  address public owner;\n\n  address[] public recipients;\n  mapping(address => Charity) public charities;\n  mapping(address => Donation[]) private donations;\n\n  modifier existCharity(address addr) {\n    require(bytes(charities[addr].name).length > 0, \"Charity not exists\");\n    _;\n  }\n\n  modifier notExistCharity(address addr) {\n    require(bytes(charities[addr].name).length == 0, \"Charity already exists\");\n    _;\n  }\n\n  modifier senderNotRecipient() {\n    require(bytes(charities[msg.sender].name).length == 0, \"Sender address is a charity recipient\");\n    _;\n  }\n\n  modifier isCharityValid(address recipient, string memory name, string memory description, address[] memory acceptedTokens) {\n    require(recipient == address(recipient), \"Charity address is invalid\");\n    require(bytes(name).length > 0, \"Charity name is blank\");\n    require(bytes(description).length > 0, \"Charity description is blank\");\n    require(acceptedTokens.length > 0, \"Charity must accept at least one token\");\n    _;\n  }\n\n  modifier isOwner() {\n    require(msg.sender == owner, \"Sender isn't contract owner\");\n    _;\n  }\n\n  constructor() {\n    owner = msg.sender;\n  }\n\n  function createCharity(\n    address recipient,\n    string memory name,\n    string memory description,\n    Cause cause,\n    string memory website,\n    address[] memory acceptedTokens\n  ) public isOwner() notExistCharity(recipient) isCharityValid(recipient, name, description, acceptedTokens) {\n    charities[recipient] = Charity({\n      name: name,\n      description: description,\n      cause: cause,\n      website: website,\n      acceptedTokens: acceptedTokens,\n      donationCount: 0\n    });\n\n    recipients.push(recipient);\n  }\n\n  function updateCharity(\n    address recipient,\n    string memory name,\n    string memory description,\n    Cause cause,\n    string memory website,\n    address[] memory acceptedTokens\n  ) public isOwner() existCharity(recipient) isCharityValid(recipient, name, description, acceptedTokens) {\n    charities[recipient].name = name;\n    charities[recipient].description = description;\n    charities[recipient].cause = cause;\n    charities[recipient].website = website;\n    charities[recipient].acceptedTokens = acceptedTokens;\n  }\n\n  function deleteCharity(address recipient) public isOwner() existCharity(recipient) {\n    delete charities[recipient];\n    bool deleted = false;\n\n    for (uint256 i = 0; i < recipients.length; i++) {\n      if (recipients[i] == recipient) deleted = true;\n      recipients[i] = recipients[i + (deleted ? 1 : 0)];\n    }\n\n    recipients.pop();\n  }\n\n  function getRecipients() public view returns(address[] memory) {\n    return recipients;\n  }\n\n\n  function addressDonations(address addr) public view returns(Donation[] memory) {\n    return donations[addr];\n  }\n\n  function donate(address payable recipient) public payable existCharity(recipient) senderNotRecipient() {\n    recipient.transfer(msg.value);\n    charities[recipient].donationCount += 1;\n\n    Donation memory donation = Donation({\n      from: msg.sender,\n      recipient: recipient,\n      amount: msg.value,\n      token: address(0),\n      timestamp: block.timestamp\n    });\n    donations[msg.sender].push(donation);\n    donations[recipient].push(donation);\n  }\n\n  function donateToken(address recipient, address token, uint256 amount) public existCharity(recipient) senderNotRecipient() {\n    Charity memory charity = charities[recipient];\n    IBEP20 tokenContract = IBEP20(token);\n    bool isTokenAccepted = false;\n\n    for (uint256 i = 0; i < charity.acceptedTokens.length; i++) {\n      if (charity.acceptedTokens[i] == token) {\n        isTokenAccepted = true;\n        break;\n      }\n    }\n\n    require(isTokenAccepted, \"Token not accepted by charity\");\n    require(amount > 0, \"You need to donate at least some amount\");\n    uint256 allowance = tokenContract.allowance(msg.sender, address(this));\n    require(allowance >= amount, \"Check the token allowance\");\n\n    tokenContract.transferFrom(msg.sender, recipient, amount);\n    charities[recipient].donationCount += 1;\n\n    Donation memory donation = Donation({\n      from: msg.sender,\n      recipient: recipient,\n      amount: amount,\n      token: token,\n      timestamp: block.timestamp\n    });\n    donations[msg.sender].push(donation);\n    donations[recipient].push(donation);\n  }\n}\n",
  "sourcePath": "/home/vini23hot/projects/donation-chain/contracts/DonationChain.sol",
  "compiler": {
    "name": "solc",
    "version": "0.8.11+commit.d7f03943.Emscripten.clang"
  },
  "schemaVersion": "3.4.3",
  "updatedAt": "2021-12-30T17:24:36.542Z",
  "networkType": "ethereum",
  "devdoc": {
    "kind": "dev",
    "methods": {},
    "version": 1
  },
  "userdoc": {
    "kind": "user",
    "methods": {},
    "version": 1
  }
}