{
  "contractName": "DonationChain",
  "abi": [
    {
      "inputs": [],
      "stateMutability": "nonpayable",
      "type": "constructor"
    },
    {
      "anonymous": false,
      "inputs": [
        {
          "indexed": false,
          "internalType": "address",
          "name": "from",
          "type": "address"
        },
        {
          "indexed": false,
          "internalType": "address",
          "name": "recipient",
          "type": "address"
        },
        {
          "indexed": false,
          "internalType": "uint256",
          "name": "amount",
          "type": "uint256"
        },
        {
          "indexed": false,
          "internalType": "address",
          "name": "token",
          "type": "address"
        }
      ],
      "name": "Donation",
      "type": "event"
    },
    {
      "inputs": [
        {
          "internalType": "address",
          "name": "",
          "type": "address"
        }
      ],
      "name": "charities",
      "outputs": [
        {
          "internalType": "string",
          "name": "name",
          "type": "string"
        },
        {
          "internalType": "string",
          "name": "description",
          "type": "string"
        },
        {
          "internalType": "enum DonationChain.Cause",
          "name": "cause",
          "type": "uint8"
        },
        {
          "internalType": "string",
          "name": "website",
          "type": "string"
        },
        {
          "internalType": "uint256",
          "name": "donationCount",
          "type": "uint256"
        }
      ],
      "stateMutability": "view",
      "type": "function"
    },
    {
      "inputs": [],
      "name": "owner",
      "outputs": [
        {
          "internalType": "address",
          "name": "",
          "type": "address"
        }
      ],
      "stateMutability": "view",
      "type": "function"
    },
    {
      "inputs": [
        {
          "internalType": "address",
          "name": "recipient",
          "type": "address"
        },
        {
          "internalType": "string",
          "name": "name",
          "type": "string"
        },
        {
          "internalType": "string",
          "name": "description",
          "type": "string"
        },
        {
          "internalType": "enum DonationChain.Cause",
          "name": "cause",
          "type": "uint8"
        },
        {
          "internalType": "string",
          "name": "website",
          "type": "string"
        },
        {
          "internalType": "address[]",
          "name": "acceptedTokens",
          "type": "address[]"
        }
      ],
      "name": "createCharity",
      "outputs": [],
      "stateMutability": "nonpayable",
      "type": "function"
    },
    {
      "inputs": [
        {
          "internalType": "address",
          "name": "recipient",
          "type": "address"
        },
        {
          "internalType": "string",
          "name": "name",
          "type": "string"
        },
        {
          "internalType": "string",
          "name": "description",
          "type": "string"
        },
        {
          "internalType": "enum DonationChain.Cause",
          "name": "cause",
          "type": "uint8"
        },
        {
          "internalType": "string",
          "name": "website",
          "type": "string"
        },
        {
          "internalType": "address[]",
          "name": "acceptedTokens",
          "type": "address[]"
        }
      ],
      "name": "updateCharity",
      "outputs": [],
      "stateMutability": "nonpayable",
      "type": "function"
    },
    {
      "inputs": [
        {
          "internalType": "address",
          "name": "recipient",
          "type": "address"
        }
      ],
      "name": "deleteCharity",
      "outputs": [],
      "stateMutability": "nonpayable",
      "type": "function"
    },
    {
      "inputs": [],
      "name": "getRecipients",
      "outputs": [
        {
          "internalType": "address[]",
          "name": "",
          "type": "address[]"
        }
      ],
      "stateMutability": "view",
      "type": "function"
    },
    {
      "inputs": [
        {
          "internalType": "address payable",
          "name": "recipient",
          "type": "address"
        }
      ],
      "name": "donate",
      "outputs": [],
      "stateMutability": "payable",
      "type": "function"
    },
    {
      "inputs": [
        {
          "internalType": "address",
          "name": "recipient",
          "type": "address"
        },
        {
          "internalType": "address",
          "name": "token",
          "type": "address"
        },
        {
          "internalType": "uint256",
          "name": "amount",
          "type": "uint256"
        }
      ],
      "name": "donateToken",
      "outputs": [],
      "stateMutability": "nonpayable",
      "type": "function"
    }
  ],
  "bytecode": "0x608060405234801561001057600080fd5b50336000806101000a81548173ffffffffffffffffffffffffffffffffffffffff021916908373ffffffffffffffffffffffffffffffffffffffff16021790555061269f806100606000396000f3fe60806040526004361061007a5760003560e01c80638da5cb5b1161004e5780638da5cb5b146105b0578063b00abc93146105f1578063c6df5516146108a8578063d78d610b146108f95761007a565b8062362a951461007f5780630198c8b2146100c35780632478239a1461037a5780637822237314610535575b600080fd5b6100c16004803603602081101561009557600080fd5b81019080803573ffffffffffffffffffffffffffffffffffffffff169060200190929190505050610965565b005b3480156100cf57600080fd5b50610378600480360360c08110156100e657600080fd5b81019080803573ffffffffffffffffffffffffffffffffffffffff1690602001909291908035906020019064010000000081111561012357600080fd5b82018360208201111561013557600080fd5b8035906020019184600183028401116401000000008311171561015757600080fd5b91908080601f016020809104026020016040519081016040528093929190818152602001838380828437600081840152601f19601f820116905080830192505050505050509192919290803590602001906401000000008111156101ba57600080fd5b8201836020820111156101cc57600080fd5b803590602001918460018302840111640100000000831117156101ee57600080fd5b91908080601f016020809104026020016040519081016040528093929190818152602001838380828437600081840152601f19601f820116905080830192505050505050509192919290803560ff1690602001909291908035906020019064010000000081111561025e57600080fd5b82018360208201111561027057600080fd5b8035906020019184600183028401116401000000008311171561029257600080fd5b91908080601f016020809104026020016040519081016040528093929190818152602001838380828437600081840152601f19601f820116905080830192505050505050509192919290803590602001906401000000008111156102f557600080fd5b82018360208201111561030757600080fd5b8035906020019184602083028401116401000000008311171561032957600080fd5b919080806020026020016040519081016040528093929190818152602001838360200280828437600081840152601f19601f820116905080830192505050505050509192919290505050610b5f565b005b34801561038657600080fd5b506103c96004803603602081101561039d57600080fd5b81019080803573ffffffffffffffffffffffffffffffffffffffff16906020019092919050505061106c565b6040518080602001806020018660078111156103e157fe5b815260200180602001858152602001848103845289818151815260200191508051906020019080838360005b8381101561042857808201518184015260208101905061040d565b50505050905090810190601f1680156104555780820380516001836020036101000a031916815260200191505b50848103835288818151815260200191508051906020019080838360005b8381101561048e578082015181840152602081019050610473565b50505050905090810190601f1680156104bb5780820380516001836020036101000a031916815260200191505b50848103825286818151815260200191508051906020019080838360005b838110156104f45780820151818401526020810190506104d9565b50505050905090810190601f1680156105215780820380516001836020036101000a031916815260200191505b509850505050505050505060405180910390f35b34801561054157600080fd5b506105ae6004803603606081101561055857600080fd5b81019080803573ffffffffffffffffffffffffffffffffffffffff169060200190929190803573ffffffffffffffffffffffffffffffffffffffff16906020019092919080359060200190929190505050611277565b005b3480156105bc57600080fd5b506105c5611a77565b604051808273ffffffffffffffffffffffffffffffffffffffff16815260200191505060405180910390f35b3480156105fd57600080fd5b506108a6600480360360c081101561061457600080fd5b81019080803573ffffffffffffffffffffffffffffffffffffffff1690602001909291908035906020019064010000000081111561065157600080fd5b82018360208201111561066357600080fd5b8035906020019184600183028401116401000000008311171561068557600080fd5b91908080601f016020809104026020016040519081016040528093929190818152602001838380828437600081840152601f19601f820116905080830192505050505050509192919290803590602001906401000000008111156106e857600080fd5b8201836020820111156106fa57600080fd5b8035906020019184600183028401116401000000008311171561071c57600080fd5b91908080601f016020809104026020016040519081016040528093929190818152602001838380828437600081840152601f19601f820116905080830192505050505050509192919290803560ff1690602001909291908035906020019064010000000081111561078c57600080fd5b82018360208201111561079e57600080fd5b803590602001918460018302840111640100000000831117156107c057600080fd5b91908080601f016020809104026020016040519081016040528093929190818152602001838380828437600081840152601f19601f8201169050808301925050505050505091929192908035906020019064010000000081111561082357600080fd5b82018360208201111561083557600080fd5b8035906020019184602083028401116401000000008311171561085757600080fd5b919080806020026020016040519081016040528093929190818152602001838360200280828437600081840152601f19601f820116905080830192505050505050509192919290505050611a9b565b005b3480156108b457600080fd5b506108f7600480360360208110156108cb57600080fd5b81019080803573ffffffffffffffffffffffffffffffffffffffff169060200190929190505050611fe2565b005b34801561090557600080fd5b5061090e612382565b6040518080602001828103825283818151815260200191508051906020019060200280838360005b83811015610951578082015181840152602081019050610936565b505050509050019250505060405180910390f35b806000600160008373ffffffffffffffffffffffffffffffffffffffff1673ffffffffffffffffffffffffffffffffffffffff16815260200190815260200160002060000180546001816001161561010002031660029004905011610a32576040517f08c379a00000000000000000000000000000000000000000000000000000000081526004018080602001828103825260128152602001807f43686172697479206e6f7420657869737473000000000000000000000000000081525060200191505060405180910390fd5b8173ffffffffffffffffffffffffffffffffffffffff166108fc349081150290604051600060405180830381858888f19350505050158015610a78573d6000803e3d6000fd5b5060018060008473ffffffffffffffffffffffffffffffffffffffff1673ffffffffffffffffffffffffffffffffffffffff168152602001908152602001600020600501600082825401925050819055507fbf3d2dcd89e875303bb0a087667fd117c923727a2309702fb9705e76f8783a313383346000604051808573ffffffffffffffffffffffffffffffffffffffff1681526020018473ffffffffffffffffffffffffffffffffffffffff1681526020018381526020018273ffffffffffffffffffffffffffffffffffffffff16815260200194505050505060405180910390a15050565b60008054906101000a900473ffffffffffffffffffffffffffffffffffffffff1673ffffffffffffffffffffffffffffffffffffffff163373ffffffffffffffffffffffffffffffffffffffff1614610c20576040517f08c379a000000000000000000000000000000000000000000000000000000000815260040180806020018281038252601b8152602001807f53656e6465722069736e277420636f6e7472616374206f776e6572000000000081525060200191505060405180910390fd5b856000600160003373ffffffffffffffffffffffffffffffffffffffff1673ffffffffffffffffffffffffffffffffffffffff16815260200190815260200160002060000180546001816001161561010002031660029004905014610ced576040517f08c379a00000000000000000000000000000000000000000000000000000000081526004018080602001828103825260168152602001807f4368617269747920616c7265616479206578697374730000000000000000000081525060200191505060405180910390fd5b868686848373ffffffffffffffffffffffffffffffffffffffff168473ffffffffffffffffffffffffffffffffffffffff1614610d92576040517f08c379a000000000000000000000000000000000000000000000000000000000815260040180806020018281038252601a8152602001807f43686172697479206164647265737320697320696e76616c696400000000000081525060200191505060405180910390fd5b6000835111610e09576040517f08c379a00000000000000000000000000000000000000000000000000000000081526004018080602001828103825260158152602001807f43686172697479206e616d6520697320626c616e6b000000000000000000000081525060200191505060405180910390fd5b6000825111610e80576040517f08c379a000000000000000000000000000000000000000000000000000000000815260040180806020018281038252601c8152602001807f43686172697479206465736372697074696f6e20697320626c616e6b0000000081525060200191505060405180910390fd5b6000815111610eda576040517f08c379a00000000000000000000000000000000000000000000000000000000081526004018080602001828103825260268152602001806126446026913960400191505060405180910390fd5b6040518060c001604052808b81526020018a8152602001896007811115610efd57fe5b81526020018881526020018781526020016000815250600160008d73ffffffffffffffffffffffffffffffffffffffff1673ffffffffffffffffffffffffffffffffffffffff1681526020019081526020016000206000820151816000019080519060200190610f6e929190612410565b506020820151816001019080519060200190610f8b929190612410565b5060408201518160020160006101000a81548160ff02191690836007811115610fb057fe5b02179055506060820151816003019080519060200190610fd1929190612410565b506080820151816004019080519060200190610fee929190612490565b5060a0820151816005015590505060028b9080600181540180825580915050600190039060005260206000200160009091909190916101000a81548173ffffffffffffffffffffffffffffffffffffffff021916908373ffffffffffffffffffffffffffffffffffffffff1602179055505050505050505050505050565b6001602052806000526040600020600091509050806000018054600181600116156101000203166002900480601f0160208091040260200160405190810160405280929190818152602001828054600181600116156101000203166002900480156111185780601f106110ed57610100808354040283529160200191611118565b820191906000526020600020905b8154815290600101906020018083116110fb57829003601f168201915b505050505090806001018054600181600116156101000203166002900480601f0160208091040260200160405190810160405280929190818152602001828054600181600116156101000203166002900480156111b65780601f1061118b576101008083540402835291602001916111b6565b820191906000526020600020905b81548152906001019060200180831161119957829003601f168201915b5050505050908060020160009054906101000a900460ff1690806003018054600181600116156101000203166002900480601f0160208091040260200160405190810160405280929190818152602001828054600181600116156101000203166002900480156112675780601f1061123c57610100808354040283529160200191611267565b820191906000526020600020905b81548152906001019060200180831161124a57829003601f168201915b5050505050908060050154905085565b826000600160008373ffffffffffffffffffffffffffffffffffffffff1673ffffffffffffffffffffffffffffffffffffffff16815260200190815260200160002060000180546001816001161561010002031660029004905011611344576040517f08c379a00000000000000000000000000000000000000000000000000000000081526004018080602001828103825260128152602001807f43686172697479206e6f7420657869737473000000000000000000000000000081525060200191505060405180910390fd5b61134c61251a565b600160008673ffffffffffffffffffffffffffffffffffffffff1673ffffffffffffffffffffffffffffffffffffffff1681526020019081526020016000206040518060c0016040529081600082018054600181600116156101000203166002900480601f01602080910402602001604051908101604052809291908181526020018280546001816001161561010002031660029004801561142f5780601f106114045761010080835404028352916020019161142f565b820191906000526020600020905b81548152906001019060200180831161141257829003601f168201915b50505050508152602001600182018054600181600116156101000203166002900480601f0160208091040260200160405190810160405280929190818152602001828054600181600116156101000203166002900480156114d15780601f106114a6576101008083540402835291602001916114d1565b820191906000526020600020905b8154815290600101906020018083116114b457829003601f168201915b505050505081526020016002820160009054906101000a900460ff1660078111156114f857fe5b600781111561150357fe5b8152602001600382018054600181600116156101000203166002900480601f0160208091040260200160405190810160405280929190818152602001828054600181600116156101000203166002900480156115a05780601f10611575576101008083540402835291602001916115a0565b820191906000526020600020905b81548152906001019060200180831161158357829003601f168201915b505050505081526020016004820180548060200260200160405190810160405280929190818152602001828054801561162e57602002820191906000526020600020905b8160009054906101000a900473ffffffffffffffffffffffffffffffffffffffff1673ffffffffffffffffffffffffffffffffffffffff16815260200190600101908083116115e4575b50505050508152602001600582015481525050905060008490506000805b8360800151518110156116ba578673ffffffffffffffffffffffffffffffffffffffff168460800151828151811061168057fe5b602002602001015173ffffffffffffffffffffffffffffffffffffffff1614156116ad57600191506116ba565b808060010191505061164c565b508061172e576040517f08c379a000000000000000000000000000000000000000000000000000000000815260040180806020018281038252601d8152602001807f546f6b656e206e6f74206163636570746564206279206368617269747900000081525060200191505060405180910390fd5b60008511611787576040517f08c379a000000000000000000000000000000000000000000000000000000000815260040180806020018281038252602781526020018061261d6027913960400191505060405180910390fd5b60008273ffffffffffffffffffffffffffffffffffffffff1663dd62ed3e33306040518363ffffffff1660e01b8152600401808373ffffffffffffffffffffffffffffffffffffffff1681526020018273ffffffffffffffffffffffffffffffffffffffff1681526020019250505060206040518083038186803b15801561180e57600080fd5b505afa158015611822573d6000803e3d6000fd5b505050506040513d602081101561183857600080fd5b81019080805190602001909291905050509050858110156118c1576040517f08c379a00000000000000000000000000000000000000000000000000000000081526004018080602001828103825260198152602001807f436865636b2074686520746f6b656e20616c6c6f77616e63650000000000000081525060200191505060405180910390fd5b8273ffffffffffffffffffffffffffffffffffffffff166323b872dd338a896040518463ffffffff1660e01b8152600401808473ffffffffffffffffffffffffffffffffffffffff1681526020018373ffffffffffffffffffffffffffffffffffffffff1681526020018281526020019350505050602060405180830381600087803b15801561195057600080fd5b505af1158015611964573d6000803e3d6000fd5b505050506040513d602081101561197a57600080fd5b81019080805190602001909291905050505060018060008a73ffffffffffffffffffffffffffffffffffffffff1673ffffffffffffffffffffffffffffffffffffffff168152602001908152602001600020600501600082825401925050819055507fbf3d2dcd89e875303bb0a087667fd117c923727a2309702fb9705e76f8783a313389888a604051808573ffffffffffffffffffffffffffffffffffffffff1681526020018473ffffffffffffffffffffffffffffffffffffffff1681526020018381526020018273ffffffffffffffffffffffffffffffffffffffff16815260200194505050505060405180910390a15050505050505050565b60008054906101000a900473ffffffffffffffffffffffffffffffffffffffff1681565b60008054906101000a900473ffffffffffffffffffffffffffffffffffffffff1673ffffffffffffffffffffffffffffffffffffffff163373ffffffffffffffffffffffffffffffffffffffff1614611b5c576040517f08c379a000000000000000000000000000000000000000000000000000000000815260040180806020018281038252601b8152602001807f53656e6465722069736e277420636f6e7472616374206f776e6572000000000081525060200191505060405180910390fd5b856000600160008373ffffffffffffffffffffffffffffffffffffffff1673ffffffffffffffffffffffffffffffffffffffff16815260200190815260200160002060000180546001816001161561010002031660029004905011611c29576040517f08c379a00000000000000000000000000000000000000000000000000000000081526004018080602001828103825260128152602001807f43686172697479206e6f7420657869737473000000000000000000000000000081525060200191505060405180910390fd5b868686848373ffffffffffffffffffffffffffffffffffffffff168473ffffffffffffffffffffffffffffffffffffffff1614611cce576040517f08c379a000000000000000000000000000000000000000000000000000000000815260040180806020018281038252601a8152602001807f43686172697479206164647265737320697320696e76616c696400000000000081525060200191505060405180910390fd5b6000835111611d45576040517f08c379a00000000000000000000000000000000000000000000000000000000081526004018080602001828103825260158152602001807f43686172697479206e616d6520697320626c616e6b000000000000000000000081525060200191505060405180910390fd5b6000825111611dbc576040517f08c379a000000000000000000000000000000000000000000000000000000000815260040180806020018281038252601c8152602001807f43686172697479206465736372697074696f6e20697320626c616e6b0000000081525060200191505060405180910390fd5b6000815111611e16576040517f08c379a00000000000000000000000000000000000000000000000000000000081526004018080602001828103825260268152602001806126446026913960400191505060405180910390fd5b89600160008d73ffffffffffffffffffffffffffffffffffffffff1673ffffffffffffffffffffffffffffffffffffffff1681526020019081526020016000206000019080519060200190611e6c929190612410565b5088600160008d73ffffffffffffffffffffffffffffffffffffffff1673ffffffffffffffffffffffffffffffffffffffff1681526020019081526020016000206001019080519060200190611ec3929190612410565b5087600160008d73ffffffffffffffffffffffffffffffffffffffff1673ffffffffffffffffffffffffffffffffffffffff16815260200190815260200160002060020160006101000a81548160ff02191690836007811115611f2257fe5b021790555086600160008d73ffffffffffffffffffffffffffffffffffffffff1673ffffffffffffffffffffffffffffffffffffffff1681526020019081526020016000206003019080519060200190611f7d929190612410565b5085600160008d73ffffffffffffffffffffffffffffffffffffffff1673ffffffffffffffffffffffffffffffffffffffff1681526020019081526020016000206004019080519060200190611fd4929190612490565b505050505050505050505050565b60008054906101000a900473ffffffffffffffffffffffffffffffffffffffff1673ffffffffffffffffffffffffffffffffffffffff163373ffffffffffffffffffffffffffffffffffffffff16146120a3576040517f08c379a000000000000000000000000000000000000000000000000000000000815260040180806020018281038252601b8152602001807f53656e6465722069736e277420636f6e7472616374206f776e6572000000000081525060200191505060405180910390fd5b806000600160008373ffffffffffffffffffffffffffffffffffffffff1673ffffffffffffffffffffffffffffffffffffffff16815260200190815260200160002060000180546001816001161561010002031660029004905011612170576040517f08c379a00000000000000000000000000000000000000000000000000000000081526004018080602001828103825260128152602001807f43686172697479206e6f7420657869737473000000000000000000000000000081525060200191505060405180910390fd5b600160008373ffffffffffffffffffffffffffffffffffffffff1673ffffffffffffffffffffffffffffffffffffffff168152602001908152602001600020600080820160006121c0919061255b565b6001820160006121d0919061255b565b6002820160006101000a81549060ff02191690556003820160006121f4919061255b565b60048201600061220491906125a3565b600582016000905550506000805b60028054905081101561233c578373ffffffffffffffffffffffffffffffffffffffff166002828154811061224357fe5b9060005260206000200160009054906101000a900473ffffffffffffffffffffffffffffffffffffffff1673ffffffffffffffffffffffffffffffffffffffff16141561228f57600191505b60028261229d5760006122a0565b60015b60ff168201815481106122af57fe5b9060005260206000200160009054906101000a900473ffffffffffffffffffffffffffffffffffffffff16600282815481106122e757fe5b9060005260206000200160006101000a81548173ffffffffffffffffffffffffffffffffffffffff021916908373ffffffffffffffffffffffffffffffffffffffff1602179055508080600101915050612212565b50600280548061234857fe5b6001900381819060005260206000200160006101000a81549073ffffffffffffffffffffffffffffffffffffffff02191690559055505050565b6060600280548060200260200160405190810160405280929190818152602001828054801561240657602002820191906000526020600020905b8160009054906101000a900473ffffffffffffffffffffffffffffffffffffffff1673ffffffffffffffffffffffffffffffffffffffff16815260200190600101908083116123bc575b5050505050905090565b828054600181600116156101000203166002900490600052602060002090601f016020900481019282601f1061245157805160ff191683800117855561247f565b8280016001018555821561247f579182015b8281111561247e578251825591602001919060010190612463565b5b50905061248c91906125c4565b5090565b828054828255906000526020600020908101928215612509579160200282015b828111156125085782518260006101000a81548173ffffffffffffffffffffffffffffffffffffffff021916908373ffffffffffffffffffffffffffffffffffffffff160217905550916020019190600101906124b0565b5b50905061251691906125e1565b5090565b6040518060c0016040528060608152602001606081526020016000600781111561254057fe5b81526020016060815260200160608152602001600081525090565b50805460018160011615610100020316600290046000825580601f1061258157506125a0565b601f01602090049060005260206000209081019061259f91906125c4565b5b50565b50805460008255906000526020600020908101906125c191906125c4565b50565b5b808211156125dd5760008160009055506001016125c5565b5090565b5b8082111561261857600081816101000a81549073ffffffffffffffffffffffffffffffffffffffff0219169055506001016125e2565b509056fe596f75206e65656420746f20646f6e617465206174206c6561737420736f6d6520616d6f756e7443686172697479206d75737420616363657074206174206c65617374206f6e6520746f6b656ea26469706673582212204a3e2c82f0727772a694e4ab5b48e04b7e9eba1af734da397ee2c43ff3927c8164736f6c634300060c0033",
  "immutableReferences": {},
  "source": "// SPDX-License-Identifier: MIT\npragma solidity >=0.6.4 <0.9.0;\n\ninterface IBEP20 {\n    function totalSupply() external view returns (uint256);\n    function decimals() external view returns (uint8);\n    function symbol() external view returns (string memory);\n    function name() external view returns (string memory);\n    function getOwner() external view returns (address);\n    function balanceOf(address account) external view returns (uint256);\n    function transfer(address recipient, uint256 amount) external returns (bool);\n    function allowance(address _owner, address spender) external view returns (uint256);\n    function approve(address spender, uint256 amount) external returns (bool);\n    function transferFrom(address sender, address recipient, uint256 amount) external returns (bool);\n\n    event Transfer(address indexed from, address indexed to, uint256 value);\n    event Approval(address indexed owner, address indexed spender, uint256 value);\n}\n\ncontract DonationChain {\n  enum Cause {\n    ANIMALS,\n    CULTURE,\n    EDUCATION,\n    ENVIRONMENT,\n    HEALTHCARE,\n    JUSTICE,\n    RELIGION,\n    RESEARCH\n  }\n\n  struct Charity {\n    string name;\n    string description;\n    Cause cause;\n    string website;\n    address[] acceptedTokens;\n    uint donationCount;\n  }\n\n  address public owner;\n\n  mapping(address => Charity) public charities;\n  address[] private recipients;\n\n  event Donation(address from, address recipient, uint256 amount, address token);\n\n  modifier existCharity(address addr) {\n    require(bytes(charities[addr].name).length > 0, \"Charity not exists\");\n    _;\n  }\n\n  modifier notExistCharity(address addr) {\n    require(bytes(charities[msg.sender].name).length == 0, \"Charity already exists\");\n    _;\n  }\n\n  modifier isCharityValid(address recipient, string memory name, string memory description, address[] memory acceptedTokens) {\n    require(recipient == address(recipient), \"Charity address is invalid\");\n    require(bytes(name).length > 0, \"Charity name is blank\");\n    require(bytes(description).length > 0, \"Charity description is blank\");\n    require(acceptedTokens.length > 0, \"Charity must accept at least one token\");\n    _;\n  }\n\n  modifier isOwner() {\n    require(msg.sender == owner, \"Sender isn't contract owner\");\n    _;\n  }\n\n  constructor() public {\n    owner = msg.sender;\n  }\n\n  function createCharity(\n    address recipient,\n    string memory name,\n    string memory description,\n    Cause cause,\n    string memory website,\n    address[] memory acceptedTokens\n  ) public isOwner() notExistCharity(recipient) isCharityValid(recipient, name, description, acceptedTokens) {\n    charities[recipient] = Charity({\n      name: name,\n      description: description,\n      cause: cause,\n      website: website,\n      acceptedTokens: acceptedTokens,\n      donationCount: 0\n    });\n\n    recipients.push(recipient);\n  }\n\n  function updateCharity(\n    address recipient,\n    string memory name,\n    string memory description,\n    Cause cause,\n    string memory website,\n    address[] memory acceptedTokens\n  ) public isOwner() existCharity(recipient) isCharityValid(recipient, name, description, acceptedTokens) {\n    charities[recipient].name = name;\n    charities[recipient].description = description;\n    charities[recipient].cause = cause;\n    charities[recipient].website = website;\n    charities[recipient].acceptedTokens = acceptedTokens;\n  }\n\n  function deleteCharity(address recipient) public isOwner() existCharity(recipient) {\n    delete charities[recipient];\n    bool deleted = false;\n\n    for (uint i = 0; i < recipients.length; i++) {\n      if (recipients[i] == recipient) deleted = true;\n      recipients[i] = recipients[i + (deleted ? 1 : 0)];\n    }\n\n    recipients.pop();\n  }\n\n  function getRecipients() public view returns(address[] memory) {\n    return recipients;\n  }\n\n  function donate(address payable recipient) public payable existCharity(recipient) {\n    recipient.transfer(msg.value);\n    charities[recipient].donationCount += 1;\n    emit Donation(msg.sender, recipient, msg.value, address(0));\n  }\n\n  function donateToken(address recipient, address token, uint256 amount) public existCharity(recipient) {\n    Charity memory charity = charities[recipient];\n    IBEP20 tokenContract = IBEP20(token);\n    bool isTokenAccepted = false;\n\n    for (uint i = 0; i < charity.acceptedTokens.length; i++) {\n      if (charity.acceptedTokens[i] == token) {\n        isTokenAccepted = true;\n        break;\n      }\n    }\n\n    require(isTokenAccepted, \"Token not accepted by charity\");\n    require(amount > 0, \"You need to donate at least some amount\");\n    uint256 allowance = tokenContract.allowance(msg.sender, address(this));\n    require(allowance >= amount, \"Check the token allowance\");\n\n    tokenContract.transferFrom(msg.sender, recipient, amount);\n    charities[recipient].donationCount += 1;\n    emit Donation(msg.sender, recipient, amount, token);\n  }\n}\n",
  "sourcePath": "/home/vini23hot/projects/donation-chain/contracts/DonationChain.sol",
  "compiler": {
    "name": "solc",
    "version": "0.6.12+commit.27d51765.Emscripten.clang"
  },
  "schemaVersion": "3.4.3",
  "updatedAt": "2021-12-15T23:37:22.175Z",
  "devdoc": {
    "kind": "dev",
    "methods": {},
    "version": 1
  },
  "userdoc": {
    "kind": "user",
    "methods": {},
    "version": 1
  }
}